:100000000C945C010C9479010C9479010C947901A5
:100010000C9479010C9479010C9479010C94790178
:100020000C9479010C9479010C94341B0C94061CEB
:100030000C944F160C9479010C9479010C9479016D
:100040000C9479010C9479010C9479010C94790148
:100050000C9479010C94D8160C9479010C947901C4
:100060000C9479010C9479010C9479010C94790128
:100070000C9479010C9479010C9479010C94790118
:100080000C9479010C9479010C9479010C94790108
:100090000C9479010C9479010C9479010C947901F8
:1000A0000C9479010C9479010C947901EE03EE0320
:1000B0001A041A047B049904880588059E04140513
:1000C00025052505221394132A13F412F8122E1372
:1000D000FB1231133C1306138A130A1340130E1339
:1000E00044136E1312134813781318134E13581336
:1000F000FF123513021338131D13531364138413A3
:100100008613F01226139D1368146E145C14621487
:1001100074147A1480146E1C951C8D1D951C8D1DF5
:10012000E11C041D8D1D5B1D6A1D040005000600F9
:100130000700220341006C0067006C006100620050
:100140006E00650074002D004D00650069007300AD
:10015000680069000000140361006C0067006C0017
:10016000610062006E006500740000000403090471
:1001700009023B00020100A0FA090400000103018A
:100180000100092111010001224400070581030833
:100190000001090401000103000000092111010010
:1001A0000122B600070582032000011201000200AF
:1001B00000000860A1020700010102000105010919
:1001C00002A10185020901A10005091901290815EB
:1001D00000250195087501810205010930093115D5
:1001E00081257F95027508810609381581257F953F
:1001F0000175088106050C0A38021581257F9501D5
:1002000075088106C0C005010980A1018503190197
:100210002AB700150126B700950175108100C005A9
:100220000C0901A101850419012AA002150126A0CB
:1002300002950175108100C005010906A10185061E
:10024000050719E029E715002501950875018102C8
:100250000507190029EF1500250195F075018102A8
:100260000508190129059505750191029501750388
:100270009101C005010906A101050719E029E7154B
:100280000025019508750181029501750881010518
:1002900007190029FF150026FF0095067508810043
:1002A000050819012905150025019505750191021B
:1002B000950175039101C00011241FBECFEFDAE054
:1002C000DEBFCDBF11E0A0E0B1E0E4E1FDE302C09C
:1002D00005900D92AA38B107D9F722E0AAE8B1E05B
:1002E00001C01D92AF37B207E1F70E9433100C94A2
:1002F000881E0C94000081110DC061110BC04430A8
:1003000048F4E42FF0E0EE0FFF1FE65DFE4F85910D
:100310009491089581E090E008950E947B010895F2
:1003200081E0089581E008950E94920108950E945D
:10033000940108950E949201089508950E949D01DC
:100340000895A6E0B0E0E7EAF1E00C94E41D4983EB
:100350005A839E833091910189819A81311115C010
:100360003E81332359F0222349F00E943F07182F82
:10037000682F89819A810E94260703C00E94330753
:10038000182F69817A81812F04C00E943F076981FB
:100390007A810E940D0E2696E3E00C94001EFC016B
:1003A000262F4081518162817381848195810E94D1
:1003B000A1010895CF93DF93EC0161E00E94CF018A
:1003C000BE010E949701DF91CF910895CF93DF93F3
:1003D000EC0160E00E94CF01BE010E949E01DF910E
:1003E000CF91089508950E94FD050E94F2012FEF1C
:1003F00084E39CE0215080409040E1F700C0000081
:1004000008950E94F3010E94FE1608950E94F301D0
:100410000E940F1708950F931F93CF93DF938C01C2
:1004200061E00E94CF01EC01B8010E949A0188238B
:1004300009F442C0B801CE010E9450148823E1F1B2
:10044000B801CE010E94CC128823B1F1B801CE01CF
:100450000E94B613882381F1F8018581882341F138
:10046000C3308CE7D807D1F040F4C115FCE7DF07B3
:1004700091F0C130DC47A1F01BC0CB35ECE7DE07C3
:10048000A9F0CC35FCE7DF0771F0CA35DC4781F411
:100490000E947B0B0DC00E9401020EC00E94830BC4
:1004A0000E94060209C00E94710B02C00E947F0BCD
:1004B000C8010E94900101C080E0DF91CF911F919F
:1004C0000F9108950E942D160E94890208950E949E
:1004D0008D020E9436160895089581E008950895CA
:1004E000CF93DF93D82F0E946D02C82F882319F075
:1004F0008D2F0E946F028C2FDF91CF910895089568
:10050000CF93C82F0E946C028C2F0E947002CF9153
:10051000089580E00E94800208950E9498140E942D
:1005200080020895CF930E949814C82F80918C0167
:10053000C81779F0C0938C010E94BD1660938D019D
:1005400070938E0180938F01909390018C2F0E9465
:100550008002CF910895ADE0B0E0E1EBF2E00C94C1
:10056000E51D488759876A877B878C879D8791110E
:100570000E94A50ACE01019627E0FC0111922A955E
:10058000E9F726E0FE013896DC0101900D922A95EC
:10059000E1F72D8121110AC029813A814B815C81CB
:1005A0006D817E818F810E94EF0904C00E94DA0173
:1005B0008111F2CF2D96E2E00C94011EFC01248102
:1005C000213021F4808191810E9471070895662372
:1005D00019F00E94CB1002C00E9426110E949D11AA
:1005E0000895CF93882309F450C0C82F8CEF8C0F47
:1005F000813AD0F46C2F80910001909101010E940A
:100600002D15882349F06C2F8091000190910101F4
:100610000E94BB150E94D10A6C2F8091000190911D
:1006200001010E94AD150CC080E28C0F883058F497
:10063000C77081E001C0880FCA95EAF70E94880A56
:100640000E94D10A22C0EBE5EC0FE33040F4F0E069
:10065000E75BFE4F808190E00E94CD1416C0E8E574
:10066000EC0FEB3150F4F0E0EE0FFF1FED5EFE4FAC
:10067000808191810E94F21408C083E38C0F833142
:1006800020F461E08C2F0E94E702CF910895882327
:10069000A9F19CEF980F913A40F4682F80910001E6
:1006A000909101010E94BB150DC090E2980F983007
:1006B00060F4877091E001C0990F8A95EAF7892F5D
:1006C0000E948E0A0E94D10A08959BE5980F9330EC
:1006D00028F480E090E00E94CD14089598E5980FEA
:1006E0009B3128F480E090E00E94F214089593E397
:1006F000980F933118F460E00E94E70208951F9369
:10070000CF93DF93182FEB010E94F102209741F065
:100710008FE99FE00197F1F700C000002197F6CF25
:10072000812F0E944703DF91CF911F910895893354
:1007300019F060E070E002C060E570E00E947F03A5
:100740000895882321F00E94880A0E94D10A089502
:10075000882321F00E948E0A0E94D10A0895A0E009
:10076000B0E0E5EBF3E00C94DF1D7C01162FC72F02
:10077000FC01D581068102950F700E947E0A8823B4
:10078000E9F0DD23D9F08C2F807F803451F080E2B6
:10079000810F883098F0011104C08C2F807E803248
:1007A00069F080916B0282FF09C082E00E94450BD4
:1007B0000E947E0A91E0D82ED92601C0D12CCC2EE1
:1007C000C2948FE0C8228C2D90E08C30910508F007
:1007D0009FC1FC01EA5AFF4F0C94CF1D8C2F807FE4
:1007E000CF70882311F0C295C07FDD2399F0CC2310
:1007F00009F47AC180E2810F883010F0111104C031
:100800008C2F0E94880A03C08C2F0E94980A0E9495
:10081000D10A6AC1812F0E944703CC2309F478C111
:1008200080E2810F883038F1112329F18C2F0E944A
:100830009E0A24C08C2F807FCF70803211F0C29529
:10084000C07F112319F0113099F13CC080916B02E7
:1008500082FD17C0DD2349F0CC2329F08C2F0E94A4
:10086000880A0E94D10A80E040C180E00E944703CC
:10087000CC2309F44DC18C2F0E948E0A0E94D10A0C
:1008800047C1DD2349F0002309F1013009F040C1DF
:100890008C2F0E94AF0A3CC101113AC18C2F0E94DB
:1008A000A8038C2F0E94BB0A8C2F0E94180B30C10A
:1008B000DD2321F0063008F02BC108C0053008F018
:1008C00027C115C0DD2331F001110EC18C2F0E940C
:1008D000A1031EC1002359F0193309F016C1FFEF1F
:1008E00027EE83E0F15020408040E1F70CC18C2FCF
:1008F0000E94A8030DC18C2F86958695837019F0F0
:10090000813061F005C1DD2321F0812F9C2F937090
:1009100002C080E090E00E94CD1402C1DD2321F0EE
:10092000812F9C2F937002C080E090E00E94F2140F
:10093000F7C06D2F812F0E94E702F2C08C2F8370C9
:10094000B1F5D111E9C0412F429546954770440F4A
:10095000440F812F8F7090E09C01042E02C0220F63
:10096000331F0A94E2F714FF0AC08FE090E002C040
:10097000880F991F4A95E2F78095909502C080E014
:1009800090E0C695C695C370822B932BC23049F078
:1009900058F4C13019F00E945906BEC00E9450069A
:1009A000BBC00E946206B8C00E944D06B5C0DD23E0
:1009B00019F08C2F817001C08695882309F4ACC092
:1009C000412F429546954770440F440F812F8F70F9
:1009D00090E09C01042E02C0220F331F0A94E2F71C
:1009E00014FF0AC08FE090E002C0880F991F4A955B
:1009F000E2F78095909502C080E090E0C695C6959C
:100A0000C370822B932BC23049F058F4C13019F0D7
:100A10000E94C10681C00E94B8067EC00E94CA061C
:100A20007BC00E946E0678C0CF70DD2339F08C2F1A
:100A30000E948606812F0E94A1036EC0812F0E9412
:100A4000A8038C2F0E94960667C0123F21F128F45C
:100A5000103F41F0113FC1F043C0133F19F1143F63
:100A600079F03EC0DD2341F0053008F051C08C2FF5
:100A70008F710E94A8064CC0063008F049C0F7CF1D
:100A800080916B0282FD18C0DD2339F08C2F8F71AD
:100A90000E9486063DC0DD23C9F38C2F8F710E9412
:100AA000960636C0DD2329F08C2F8F710E947A06BE
:100AB0002FC00E9475062CC0DD2349F0CF718C2F0A
:100AC0000E94860663E08C2F0E94270B21C081E0E4
:100AD0000E94450B0230E0F082E00E94450B18C0F6
:100AE000DD2331F0002391F2812F0E94F10210C02A
:100AF000002399F2193349F49FEFE7EEF3E09150A8
:100B0000E040F040E1F700C00000812F0E94470361
:100B100088EF8C0D843020F40E9498140E9480028B
:100B2000DD2089F00E947A0A80FD0DC0F701158250
:100B30000E94740A0E948606C7010E94C0050E9496
:100B4000740A0E949606CDB7DEB7E8E00C94FB1D50
:100B50000F931F93CF93DF93EC01688179818D818F
:100B60000E947C078C010E94D3060E943E06B801B9
:100B7000CE010E94AF03DF91CF911F910F91089595
:100B8000CF93DF93FC0124812223D1F0EC010E945A
:100B90000B0281110FC00E947E0A882389F08D818B
:100BA000882371F080916B0282FF0AC082E00E946C
:100BB000450B06C0CE010E94A805CE010E94E601A9
:100BC000DF91CF91089580E090E00E94CD1480E005
:100BD00090E00E94F2140E94A50A0E94D10A0E948D
:100BE000BC110E949D110895809100019091010116
:100BF0000E94C9150E94E30508950E94950A0E946B
:100C0000F405089592959F70963079F010F4925003
:100C100001C09A50923068F4803F69F018F4883E21
:100C200040F409C0843F29F406C0883E20F0813F8B
:100C300011F080E0089581E00895FC0124812223D1
:100C400039F0808191810E9471070E940206089507
:100C500080E00895A6E0B0E0E0E3F6E00C94E51D46
:100C60002696E2E00C94011EA7E0B0E0EAE3F6E08D
:100C70000C94E51D2796E2E00C94011E089508955A
:100C80000E943F0608950E94400608950E94430670
:100C9000909399018093980108950E9446060895C3
:100CA0002091980130919901822B932B0E94460646
:100CB00008952091980130919901822393230E94F5
:100CC0004606089520919801309199018227932733
:100CD0000E94460608950E943F0608950E946B06F2
:100CE0009093970180939601089580E090E00E9490
:100CF0006E06089521E030E0A90102C0440F551F9F
:100D00008A95E2F7CA010E946E06089521E030E05C
:100D100002C0220F331F8A95E2F7809196019091CD
:100D20009701822B932B0E946E06089521E030E0FC
:100D300002C0220F331F8A95E2F7209530958091EB
:100D4000960190919701822393230E946E06089545
:100D500021E030E002C0220F331F8A95E2F7809134
:100D6000960190919701822793270E946E0608951D
:100D70002091960130919701822B932B0E946E0651
:100D800008952091960130919701822393230E9428
:100D90006E0608952091960130919701822793273E
:100DA0000E946E0608950895962F9770A1E001C0E5
:100DB000AA0F9A95EAF793E0769567959A95E1F7E9
:100DC000660F771F660F771FFA01E60FF71F40E0E7
:100DD00050E0682F70E090819B01042E02C0369590
:100DE00027950A94E2F72170219529272A2329279C
:100DF00021934F5F5F4F4430510569F70895FB0120
:100E0000782F777023E0969587952A95E1F7880FDC
:100E1000991F880F991FE80FF91F40E050E080E00C
:100E2000219130E0072E02C0369527950A94E2F70B
:100E300021703327042E01C0220F0A94EAF7822B77
:100E40004F5F5F4F4430510559F70895282F911196
:100E500009C0843038F4862F622F70E042E951E0F7
:100E60000E94D4060895911108C0843030F462E9DC
:100E700071E090E00E94FF06089580E00895A0E0F0
:100E8000B0E0E5E4F7E00C94DE1D7C0100919601F2
:100E9000109197018091980190919901082B192B3D
:100EA000CFE0D0E0CC24C394D12CC6010C2E02C0DC
:100EB000880F991F0A94E2F780239123892B21F44C
:100EC000219798F7B12C07C0BC2EB7018C2F0E9438
:100ED000190E0197A9F38B2DCDB7DEB7E9E00C947D
:100EE000FA1DCF93DF93EC010E943F07BE010E94E1
:100EF000190EDF91CF9108951F93CF93DF93EB01EC
:100F000090919101992321F0CB010E94710713C0A8
:100F1000882349F0CB010E943F07182F682FCE018C
:100F20000E94260704C0CB010E943307182FBE0180
:100F3000812F0E94190EDF91CF911F9108951F9369
:100F4000CF93DF93C0919A0117E080919B01C8175E
:100F5000A1F0D0E01C9FF0011D9FF00D1124E4567C
:100F6000FE4F208131814281538164817581868168
:100F70000E9434062196C770E8CFDF91CF911F9170
:100F800008952091D4013091D5014091D60150911E
:100F9000D7016091D8017091D9018091DA010E9446
:100FA00034060895CF93DF938091DA0182958F7094
:100FB00009F04EC08091D901882309F449C080917D
:100FC0009A0140919B015091D5016091D401C0914B
:100FD000D601D091D70177E08417D1F190E0789FC6
:100FE000F001799FF00D1124DF01A456BE4F149635
:100FF0002C911497222349F111962C9111972513C6
:1010000024C02C91261321C015962C9115972111DF
:101010001CC012962D913C9113972C1B3D0B283C24
:10102000310598F48091DA018F7080618093DA0144
:10103000EE55FE4F80818F708061808384ED91E05A
:101040000E94C0050E949F0703C001968770C4CF0D
:10105000DF91CF91089520919A0190919B0157E0E3
:101060002917A9F030E0529FF001539FF00D112491
:10107000E456FE4F7181761306C07081781303C069
:101080007581741306C02F5F3F4F2770E9CF80E052
:10109000089581E00895A4E1B0E0E1E5F8E00C9462
:1010A000DB1D8C0186E0F801DE011F9601900D9298
:1010B0008A95E1F7F8018481E58094EDA92E91E00D
:1010C000B92E9091D801911118C0882309F480C1DC
:1010D000EE20D9F1C8010E941D06F82E8823A9F13F
:1010E00087E0F801D50101900D928A95E1F7C501DD
:1010F0000E94DE020E94D20798C0F801C080D18011
:1011000082809380F090D9012091D6013091D7014F
:10111000A401421B530BFF2009F406C1483C5105B2
:1011200008F0AFC0882309F455C18091DA01282F57
:10113000207F9091D501222361F09D1509F462C0B2
:10114000C8010E941D06811173C0C8010E94C0051C
:101150003FC19D1115C09091D4019C1111C0E110A7
:101160000FC08F7080618093DA010E94C10784ED07
:1011700091E00E94C0058091DA01F801868326C1C2
:10118000E1103AC040E06D2D8C2D0E942B0840E00C
:101190006D2D8C2D0E942B08E82E811117C1CF8652
:1011A000D88A8F8598890E947107292F22952F70E0
:1011B000243020F49F70223028F009C02A502230B9
:1011C00080F014C0992349F0811107C013C09923FE
:1011D00021F0F8019681907F69F0805E883030F4CC
:1011E00009C0803F38F0815F833020F0C8010E9441
:1011F000C005EF2CFE2CEEC08091DA018160809357
:10120000DA01E4C09091D4019C119ACFE11098CFFB
:10121000F8018683C8010E94C00587E0F801A4EDAB
:10122000B1E001900D928A95E1F70E94C107D2C00A
:10123000EE2009F48ACF2091DA01822F82958F70F7
:1012400090E002978CF08091D4019091D50199871C
:1012500088879B868A868091D8018C871D862E87F9
:10126000CE0108960E94C00587E0F801A4EDB1E028
:1012700001900D928A95E1F70E94D2070E94C10762
:10128000A7C09091DA01292F207FA1F4682D9A8AB6
:10129000898AA6017A899E2D0E942A0684ED91E012
:1012A0000E94C00587E0F50111928A95E9F70E9436
:1012B000C1078CC0882309F48DC08091D5018D11A0
:1012C00011C08091D4018C110DC0E1100BC0F80148
:1012D0009683C8010E94C00587E0F50111928A95A6
:1012E000E9F778C0C8010E941D06882309F42DCFB4
:1012F000EE2009F42ACF2091DA01822F82958F7097
:1013000090E002970CF4B0CF8091D4019091D50178
:101310009A8389839C828B828091D8018D831E82DF
:101320002F83CE0101969ECF483C510508F040C066
:10133000882309F44DC0FE2CEE2009F406CF8091DD
:10134000D5018D1127C08091D4018C1123C09091BB
:10135000DA0190FD16C0892F82958F70282F30E01A
:101360002115310571F0F80196832F30310509F40C
:1013700051CF8F5F982F9295907F86818F70892BA8
:1013800048CF87E0F801A4EDB1E001900D928A9575
:10139000E1F720C0C8010E941D06811165CF809130
:1013A000DA0181608093DA01C8010E94C00512C091
:1013B000682D9A8A898AA6017A899E2D0E942A061A
:1013C00087E0F50111928A95E9F72FCFF12C02C041
:1013D000FF24F3948F2D6496ECE00C94F71DAEE09F
:1013E000B0E0E5EFF9E00C94E41D288739874A87DF
:1013F0005B876C877D878E87CE0108960E944B089D
:10140000882361F06C856623A9F1288539854A8592
:101410005B857D858E850E9434062CC087E0FE01A9
:101420003896DE01119601900D928A95E1F76C8550
:10143000662301F120919B0130E0C901019687707C
:10144000992740919A0150E084179507E1F16D8347
:1014500097E0929FD001939FB00D1124A456BE4FE8
:10146000FE01319601900D929A95E1F780939B01D0
:101470000E949F0717E080919A0190919B01891724
:1014800079F1189FC001112484569E4F0E944B0889
:10149000882331F1E0919A011E9FF0011124E45656
:1014A000FE4F208131814281538164817581868123
:1014B0000E94340680919A0190E0019687709927E6
:1014C00080939A01D8CF0E94FD0510929B01109243
:1014D0009A01E4EDF1E087E0DF011D928A95E9F7DA
:1014E0002E96E3E00C94001E8091FB018695869574
:1014F000869508958091FB01877008959091FB0176
:10150000977081E009F480E0089580911F020895AA
:1015100090911F02892B80931F02089580959091CE
:101520001F02892380931F02089510921F020895BD
:1015300090911E02892B80931E02089580959091B0
:101540001E02892380931E02089510921E020895A0
:1015500008950E94A80A08950E94A90A08959091EA
:10156000FD01292F2823821729F0982B9093FD0144
:101570000E94AC0A08959091FD01292F282331F093
:10158000809589238093FD010E94AC0A0895809183
:10159000FD01882329F01092FD0180E00E94AC0A31
:1015A0000895CF93DF93E0910001F09101018091C4
:1015B0001F028083E0910001F091010190818091F0
:1015C0001E02892B80838091FD01882381F0E091A8
:1015D0000001F09101019081892B808380910001AD
:1015E000909101010E94171581110E94C70AC091B4
:1015F0000001D091010140E250E06BED71E0CE01BD
:101600000E94201E892B59F080E2FE01ABEDB1E073
:1016100001900D928A95E1F7CE010E94A514DF9109
:10162000CF9108950E94A80A08950E94120B089570
:101630009091FC01292F282331F0809589238093F4
:10164000FC010E94150B08950E94A80A089590912C
:101650006B0292FF11C098E0899F90011124262B04
:101660002093FB010E9486068091FB01869586955A
:1016700086950E94240B08950E9486060895109274
:10168000FB0180E00E94240B08959091FB0180955E
:1016900089238093FB01282F277069F4981759F04C
:1016A00090916B0292FF07C08695869586950E9461
:1016B00096060E943F0B089590916B0292FB2227A1
:1016C00020F9281769F080FB92F990936B028091C2
:1016D0006A0290916B020E94A40B82E00E94450B6B
:1016E000089580916B0282FB882780F991E0892719
:1016F0000E945C0B089581E00E945C0B089580E0DD
:101700000E945C0B08956FEF7FEF80E090E00E94F5
:10171000721E089580E090E00E943E1E21E0863E09
:101720009E4F09F020E0822F089582E090E00E9411
:10173000361E089583E090E00E94361E089584E0EE
:1017400090E00E943E1E0895BC0184E090E00E945B
:10175000721E0895AB01BC018FE090E00E94661EEE
:101760000895AB01BC0183E190E00E94661E0895DC
:1017700060E070E0CB010E94B10B089560E070E082
:10178000CB010E94AA0B0E94B80B0895A8E0B0E01C
:10179000ECECFBE00C94E51D66EE7EEF80E090E063
:1017A0000E94721E60E082E090E00E94541E60E0A1
:1017B00083E090E00E94541E1092990110929801CB
:1017C00060E074E184E090E00E94721E60E086E0D8
:1017D00090E00E94541E6FEF87E090E00E94541E3C
:1017E00040E050E0BA0188E090E00E94661E60E0B0
:1017F00084E290E00E94541E60E087E190E00E9445
:10180000541E60E08CE090E00E94541E60E08DE089
:1018100090E00E94541E19821A821B821C821D8233
:101820001E821F82188648E050E068E170E0CE0119
:1018300001960E94441E40E050E0BA0180E290E030
:101840000E94661E0E94BE0B2896E2E00C94011EC8
:101850000E94C60B0895682F8EE090E00E94541EEF
:101860000895A6E0B0E0E7E3FCE00C94E31D0E94DD
:10187000B1168C018091200290912102081719075E
:1018800081F019821A820E94B116682F49815A810B
:10189000792F80E090E00E94AB0210932102009328
:1018A00020022696E4E00C94FF1D0E94BD16609372
:1018B0002702709328028093290290932A02609352
:1018C00023027093240280932502909326020895A8
:1018D00081E0089581E008950E946A0C08950895BA
:1018E0000E946F0C08950E946F0C08950E94730C63
:1018F00008950E946F0C08950E94790C08950E942B
:101900006F0C089589E09FE00E9440100E947F0CB8
:101910000E947C0C08950E94700C0E946F0C089528
:101920000E94280F0E947F0208950E94A8160E941C
:10193000BA0F0E94900C0E94760C0895A6E0B0E0C9
:10194000E4EAFCE00C94DF1D0E94680C811103C0E6
:101950000E94310C3DC00E94C60F1091220280E00F
:101960000E94460F1817A1F380912B0281FD0E945F
:101970004C0F0E946C0CD82E80E00E94460FE82E7F
:10198000F0902202F82611F110E001E0CC24C3947B
:101990008F2D8023A9F0DD2099F019831A820E94EF
:1019A000B1169C838B83CD8291E08E2D802309F428
:1019B00090E049815A816B817C818D810E94AB02CC
:1019C0001F5F000F143021F7E09222020E94550C95
:1019D0000E94DE110E9492022696E8E00C94FB1D04
:1019E0001F93CF93DF930E941E0EEC01C11580E57B
:1019F000D807E8F5C11590E4D90708F0A8C0C03EA3
:101A0000D10530F5CD3CD10508F094C0C83AD105D8
:101A100078F4C53AD10508F083C0C130D10509F486
:101A20007CC008F4F2C0C430D10508F0F1C0EDC0AC
:101A3000C33CD10508F0E9C0C85AD0E0CC0FDD1F87
:101A4000C45BDE4F0990D881C02DCE019464E1C003
:101A5000C11580E2D80708F0CBC0C11591E0D907C5
:101A600008F06BC0C83ED10508F4D2C0CEC0C03665
:101A700082E5D80728F5C03492E5D90708F079C087
:101A8000C03282E5D80708F06CC0C11592E5D907CD
:101A900008F481C04C2F4695469580E2489FA001EE
:101AA0001124C37021E030E0C90102C0880F991FE2
:101AB000CA95E2F7EA01C82BD92BCE019D68A9C0CF
:101AC000C03A82E5D807B8F48C2F8F71C03892E500
:101AD000D90708F07BC08695869590E2899F900192
:101AE0001124C37081E090E002C0880F991FCA954D
:101AF000E2F79A6868C0C03C82E5D80708F46DC078
:101B0000C03E92E5D90708F080C0CF71DD27DC2FF9
:101B1000CC27CE01806F906A7CC081E090E079C0D4
:101B2000C55AD0E0CE57DE4F8881C82FD0E0CE0115
:101B300090646FC0CE0190656CC08D2F0E94BA0E6C
:101B4000182FCE0199270E941E0E1F715CC0CE0176
:101B500099270E941E0ECC27DF70D06A8C2B9D2BFC
:101B600058C0CF71D0E0DC2FCC27CE01816F906AB6
:101B700050C08C2F8F718695869590E2899F900139
:101B80001124C37081E090E002C0880F991FCA95AC
:101B9000E2F79C6818C08C2F8F710E94BA0E95E0F6
:101BA000D695C7959A95E1F7CF70D0E0DC2FCC277A
:101BB000282F30E084FF05C084E0220F331F8A9570
:101BC000E1F7D069CE01822B932B23C090E0D82F70
:101BD000CC27CE01846F906A1CC08C2F8F710E941D
:101BE000BA0E8F7190E0D82FCC27CE01906211C031
:101BF0008D2F8F710E94BA0E182FCE0199270E9447
:101C00001E0E1F719062912B04C080E090E001C015
:101C1000CE01DF91CF911F910895711107C06430FB
:101C200028F4462F60E00E948D01089580E090E046
:101C300008950E940D0E0E94F00C089582389105BF
:101C400069F1B0F48133910509F475C048F4893223
:101C5000910509F467C08A32910509F471C00895AD
:101C60008533910509F459C089339105B9F0089578
:101C7000833E910589F138F4803E9105D1F0823E92
:101C8000910529F10895863E9105C9F1873E910598
:101C9000D9F1843E910509F06CC027C020916A02F9
:101CA00020FD57C021FD55C020916B0223FD5BC074
:101CB000089580916A0280FD48C080916B0280FF88
:101CC00048C080916A0284FD46C083EE51C0809175
:101CD0006A0282FF3CC0F5CF80916A0282FD37C064
:101CE00080916B0280FD35C0ECCF80916B0281FF4B
:101CF00036C080916A0284FD2EC087EE39C0809183
:101D00006A0283FF2AC0F5CF80916A0283FD25C055
:101D100080916B0281FD23C0ECCF80916A0285FD2A
:101D200022C01FC080916A0285FD1BC080916B029A
:101D300083FF19C00AC080916A0286FD16C017C0D1
:101D400080916A0286FD13C010C089E311C082EE43
:101D50000FC080EE0DC080E00BC086EE09C084EE9F
:101D600007C085E305C089E203C08AE201C081E3C0
:101D700090E0089590916A0292FF10C041E0282FF0
:101D80002471243009F040E031E0282F28712830F8
:101D900009F030E0431711F02CE0822793FF10C0C8
:101DA00041E0282F2471243109F040E031E0282F50
:101DB0002871283109F030E0431711F02CE0822718
:101DC00030916B0230FF10C051E0282F217121307B
:101DD00009F050E041E0282F2871283009F040E058
:101DE000541711F029E0822731FF10C041E0282F5D
:101DF0002171213109F040E031E0282F287128318C
:101E000009F030E0431711F029E0822794FD877E26
:101E1000089580E008950E94830B08950E94C60FE4
:101E20002FEF86E791E0215080409040E1F700C01D
:101E300000000E94C60F80E00E94460F80FF04C091
:101E40000E940B0F0E94FE1608950E940E0F089527
:101E50000E948A0B811102C00E94280C0E94950BDF
:101E600080932B020E949F0B90936B0280936A02D7
:101E70000E94250F0E949A0B90E00E944D068091CF
:101E80009601909197010E946B060895E82FF0E06B
:101E9000E359FD4F80810895089508950E944D0FE4
:101EA00008950E944E0F08950E944D0F08950E94BC
:101EB000540F0895CF93DF93A5E8B1E069E871E08E
:101EC00041E050E08D918F3F31F46A177B07D1F7E5
:101ED000DF91CF910895E82FE295EF70F0E021A116
:101EE0008F70EA0102C0CC0FDD1F8A95E2F7CE01A8
:101EF0009C2F9095922391A392A1892B82A3E5CF49
:101F00000F931F93CF93DF93DC0170E08B01000FE1
:101F1000111F000F111F40E050E0F1E0E0E0CA01A6
:101F2000800F911F8B579E4FEC0198819F3F89F046
:101F3000292F22952F7030E0E90128A130E09F7011
:101F400002C0359527959A95E2F720FD02C02F2F04
:101F500002C020E030E0E22BFF0F4F5F5F4F4430C4
:101F60005105E9F6A60FB71FEC93DF91CF911F91B2
:101F70000F9108950E945A0F10926D0210926C02F8
:101F800081E00E94EB0F0E94570F0895A1E0B0E09E
:101F9000ECECFFE00C94E41D198260E0CE010196A8
:101FA0000E94800F90916C02898121E0981301C0FA
:101FB00020E0981380936C0241E06DE672E08CE6BD
:101FC00092E00E94EC0F182F0E94510F812F219652
:101FD000E3E00C94001E0895EF92FF920F931F937D
:101FE000CF93DF937C018B01C42F222349F081E042
:101FF00080932E020E94B11690932D0280932C02A2
:1020000080912E02811102C080E01AC080912C02C2
:1020100090912D020E94C9160597B0F3D0E0AE0151
:10202000B701C8010E94201E892B39F0AE01B7010B
:10203000C8010E942D1E81E001C080E010922E0296
:10204000CDB7DEB7E6E00C94FD1D0E9489180E9412
:10205000950C0E94961808950E949B180E949E0C51
:102060000E94B51808950E9448160E946F180E9499
:10207000820C0E9425100E942C100E948B0CFBCF1A
:1020800090938B0180938A010895282F35EB2303C9
:10209000C001112497FF03C08058910902C08058E5
:1020A0009F4F892F08958091350280FF06C060916F
:1020B000070170E0660F771F26C081FF04C06091A2
:1020C000070184E005C082FF07C06091070188E036
:1020D000689FB001112417C0909134029923D1F068
:1020E00060910601961788F72091070188E0289FE4
:1020F00090011124929FA001939F500D112470E034
:10210000CA010E94BB1D6038710540F4611571055C
:1021100019F406C068E070E0862F08958FE70895EF
:1021200081E008958091350280FF08C0609103012D
:1021300070E0759567957595679521C081FF06C01C
:102140006091030170E07595679519C082FF04C026
:102150006091030170E010C090913302992399F0CF
:10216000609102019617A0F780910301899FC00139
:10217000112470E00E94BB1D6038710540F46115A8
:10218000710519F406C061E070E0862F08958FE7AD
:10219000089581E008958D3C21F40E9453108195AB
:1021A00004C08E3C29F40E94531080933902089594
:1021B0008F3C21F40E945310819504C0803D29F486
:1021C0000E945310809338020895893D19F40E94AB
:1021D000921005C08A3D31F40E949210819580933F
:1021E0003A0208958B3D21F40E949210819504C01B
:1021F0008C3D29F40E94921080933B0208959FE247
:10220000980F983078F421E030E0A90102C0440F23
:10221000551F9A95E2F7CA0190913702892B809356
:10222000370208958D3D21F48091350281600BC005
:102230008E3D21F480913502826005C08F3D29F4E6
:102240008091350284608093350208958D3C39F485
:102250009091390297FF35C01092390259C08E3CD7
:1022600029F4909139021916BCF32BC090913802D1
:102270008F3C29F497FF25C01092380249C0803D59
:1022800019F41916CCF31DC090913A02893D29F436
:102290001916BCF410923A023BC08A3D19F497FF1C
:1022A00010C0F8CF8B3D39F490913B0297FF09C0E5
:1022B00010923B022DC08C3D21F490913B021916E7
:1022C000BCF39FE2980F983080F421E030E0A90140
:1022D00002C0440F551F9A95E2F7CA01809590916C
:1022E000370289238093370213C08D3D21F48091FA
:1022F00035028E7F0BC08E3D21F4809135028D7F9B
:1023000005C08F3D29F4809135028B7F8093350283
:1023100080913802811106C080913902811102C07A
:102320001092340280913A02811106C080913B02E2
:10233000811102C01092330208950E94B1162091BB
:102340003802211104C020913902222321F09093F8
:1023500032028093310220913A02211104C020916F
:102360003B02222321F09093300280932F0286E3D8
:1023700092E00E94BF140895E6E3F2E086E0DF01F8
:102380001D928A95E9F7109234021092330210924E
:1023900035020895FC01828181110DC08381811174
:1023A0000AC08481811107C091E08581811101C03B
:1023B00090E0892F01C081E081700895A6E0B0E02F
:1023C000E4EEF1E10C94E41D86E0E6E3F2E0DE01E8
:1023D000119601900D928A95E1F7109238021092B1
:1023E000390210923A0210923B028B81811104C093
:1023F0008C81882309F456C0809131029091320279
:102400000E94C916AC0190913402992339F02091B1
:10241000080130E02417350758F044C02091090125
:102420008AE0289F900111242417350718F03AC03C
:102430009F3F19F09F5F909334021B81112361F03D
:102440000E945310111614F09FEF01C091E0989F65
:10245000902D1124909338021C81112361F00E9469
:102460005310111614F09FEF01C091E0989F902D2A
:1024700011249093390280913802882399F01091A9
:102480003902112379F00E944510811101C081E0C9
:1024900080933802812F0E944510811101C081E094
:1024A000809339028D81811104C08E81882309F4C3
:1024B00056C080912F02909130020E94C916AC0143
:1024C00090913302992339F02091040130E02417D0
:1024D000350758F044C0209105018AE0289F9001FB
:1024E00011242417350718F03AC09F3F19F09F5F59
:1024F000909333021D81112361F00E9492101116F6
:1025000014F09FEF01C091E0989F902D11249093BB
:102510003A021E81112361F00E949210111614F0EC
:102520009FEF01C091E0989F902D112490933B0262
:1025300080913A02882399F010913B02112379F09F
:102540000E944510811101C081E080933A02812FE1
:102550000E944510811101C081E080933B02BE01C1
:102560006F5F7F4F86E392E00E94DB15811105C00B
:1025700086E392E00E94CA1181110E949D1186E0BB
:10258000FE013196A6E3B2E001900D928A95E1F743
:102590002696E3E00C94001ECF93DF93FC01DB0151
:1025A00015968C91882309F4DDC09F0130572332A2
:1025B000310508F0D8C0EF010E949F0B90936B0289
:1025C00080936A02FE01E150F047E232F10520F407
:1025D000EE59FF4F0C94CF1D80916A028160AAC012
:1025E00080916B028860B2C080916A028260A2C052
:1025F00080916A0220C080916A0288609BC08091AD
:102600006B021EC080916B028260A0C080916A0242
:10261000806190C080916A0280628CC080916A0261
:10262000806488C00E94FD0580916A02806882C033
:1026300080916A02886084607DC080916B028260B4
:10264000816084C080916A028E7F74C080916B0229
:10265000877F7CC080916A028D7F6CC080916A0206
:1026600020C080916A02877F65C080916B021EC086
:1026700080916B028D7F6AC080916A028F7E5AC002
:1026800080916A028F7D56C080916A028F7B52C012
:102690000E94FD0580916A028F774CC080916A028A
:1026A000877F8B7F47C080916B028D7F8E7F4EC06E
:1026B00080916A0282FB222720F991E0922790FB09
:1026C00082F990FB83F936C080916B02982F909528
:1026D00091708E7F892B90FB81F938C080916A02BE
:1026E00086FB222720F991E0922790FB86F922C0F1
:1026F0000E94FD0580916A0287FB222720F991E064
:10270000922790FB87F916C081E001C080E00E940B
:102710002B0C1EC080916A0284FB222720F991E0D5
:10272000922790FB84F906C080916A02982F9095B9
:1027300090FB80F980936A020BC080916B0283FB4F
:10274000222720F991E0922790FB83F980936B0276
:1027500080916A0290916B020E94A40B0E94FD0579
:1027600080E001C081E0DF91CF910895CF93DF93A6
:1027700086319C4741F5EB010E94850A982F8D8197
:102780002091000130910101882379F09A7A81E04B
:1027900009F480E080933C02911102C069E201C01B
:1027A00065E3C9010E94AD150AC080913C02811108
:1027B00002C069E201C065E3C9010E94BB150E9425
:1027C000D10A80E001C081E0DF91CF9108950F939D
:1027D0001F93CF93DF93C42FD22FFC0185818823D1
:1027E000B1F040933F020E94B11690933E02809355
:1027F0003D0280E28C0F883008F04DC0C77081E048
:1028000001C0880FCA95EAF70E94A10344C08091D5
:102810003F02481330C080913D0290913E020E94D9
:10282000C916883C910538F510E21D0FCD17B9F097
:1028300080E28C0F883040F4C77081E001C0880FBF
:10284000CA95EAF70E94A803183010F581E09D2F81
:10285000977001C0880F9A95EAF70E94A103802F14
:102860000E9497031830B8F4D77081E001C0880F38
:10287000DA95EAF70AC080E28C0F883060F4C770FE
:1028800081E001C0880FCA95EAF70E94A80303C03F
:10289000802F0E949703DF91CF911F910F91089590
:1028A0000F93FC01E851FC47E730F10590F5CB01AF
:1028B000EC57FF4F0C94CF1D06E221EE41EE6AE18A
:1028C0007CE723C007E225EE45EE6BE17CE71DC007
:1028D00006E221EE40EE68E17CE717C007E225EE54
:1028E00044EE69E17CE711C006E221EE42EE6CE1C4
:1028F0007CE70BC007E225EE46EE6DE17CE705C004
:1029000008E221E045EE6EE17CE70E94E71380E0FB
:1029100008C0FB018581882319F010923F0201C095
:1029200081E00F91089590934502809344020895A9
:10293000E0914402F0914502309729F00190F08136
:10294000E02D0995089580E00895FC01A0914402CE
:10295000B0914502109791F080911201882341F0C7
:1029600080916A0287FF04C08081818386E0808332
:10297000CF011296ED91FC91139709950895E0917E
:102980004402F0914502309739F022E0DC012C93AB
:102990000480F581E02D09950895A3E0B0E0E3ED12
:1029A000F4E10C94E51D2091420230914302281776
:1029B0003907A1F09093430280934202E0914402D0
:1029C000F0914502309751F023E029839B838A835D
:1029D0000680F781E02DCE01019609952396E2E06D
:1029E0000C94011EA3E0B0E0E8EFF4E10C94E51DC7
:1029F000209140023091410228173907A1F09093AD
:102A0000410280934002E0914402F09145023097E8
:102A100051F024E029839B838A830680F781E02D8F
:102A2000CE01019609952396E2E00C94011EFC016B
:102A3000329680911201882331F080916A0287FFDB
:102A400002C09EE101C096E080E0915028F0219103
:102A50002223D9F38F5FF9CF0895662351F1209196
:102A600012012223E9F020916A0227FF19C0462FA4
:102A70004695469546954E31E0F4677021E030E08A
:102A800002C0220F331F6A95E2F7FC01E40FF11D2B
:102A9000828190E02823392381E0232B69F409C047
:102AA000FC01329608962191621729F0E817F90780
:102AB000D1F780E0089581E008959C01FC013296F1
:102AC0009FEF80E04191461789F09F3F19F4411133
:102AD00001C0982F8F5F8630A9F79F3F39F0F90129
:102AE000E90FF11D97FDFA956283089508959C0101
:102AF0002A5F3F4FFC014281461301C012820196BA
:102B000082179307B9F70895262F269526952695BF
:102B10002E3168F4FC01E20FF11D677021E030E016
:102B200001C0220F6A95EAF78281282B228308953B
:102B3000262F2695269526952E3170F4FC01E20F5E
:102B4000F11D677021E030E001C0220F6A95EAF7BD
:102B50002095828128232283089520911201222327
:102B600039F020916A0227FF03C00E94841508955E
:102B70000E945D15089520911201222339F02091C1
:102B80006A0227FF03C00E94981508950E947715D6
:102B9000089520911201FC013296222331F0809198
:102BA0006A0287FF02C08EE101C086E0DF011D924C
:102BB0008A95E9F70895DC01FB0111969C91119724
:102BC0008181981321C012968C911297882319F055
:102BD0009281891319C013968C911397882319F049
:102BE0009381891311C015968C911597882319F03C
:102BF0009581891309C014969C91992339F081E03D
:102C00002481291304C002C081E001C080E08170EA
:102C1000089508950E940916089583E0809346025E
:102C20000E940A160895811102C081E001C082E06D
:102C3000809346020E940A1608950E941316089572
:102C400081E0809346020E940A1608950E94201691
:102C5000089508950E94291608950E942A1608953D
:102C60000E94291608950E94291608950E94291687
:102C700008950E9433160E94C60F0E94301680E00D
:102C80000E94460F91E0811101C090E0892F0895C4
:102C900085B7806885BF85B7806885BF08951F9216
:102CA0000F920FB60F9211248F939F93AF93BF9300
:102CB00080914702811113C080916E0290916F0242
:102CC000A0917002B09171024196A11DB11D809337
:102CD0006E0290936F02A0937002B0937102BF9145
:102CE000AF919F918F910F900FBE0F901F901895ED
:102CF00080917602843031F10E9462021092470284
:102D000020E488E190E00FB6F894A89580936000E5
:102D10000FBE2093600083B7817F846083BF83B739
:102D2000816083BF7894889583B78E7F83BF0FB609
:102D3000F894A8958091600088618093600010925B
:102D400060000FBE08950E94FD050E94670208956D
:102D500082E084BD93E095BD9AEF97BD80936E00AD
:102D600008952FB7F89480916E0290916F02A09110
:102D70007002B09171022FBF08952FB7F89460913F
:102D80006E0270916F0280917002909171022FBF5C
:102D900008959C014FB7F89480916E0290916F0254
:102DA000A0917002B09171024FBF821B930B0895E6
:102DB00078941F920F920FB60F9211248F939F93C6
:102DC000AF93BF9380916E0290916F02A0917002B9
:102DD000B09171020196A11DB11D80936E02909376
:102DE0006F02A0937002B0937102BF91AF919F9157
:102DF0008F910F900FBE0F901F90189587E797E760
:102E000090930108809300089AE088E10FB6F89447
:102E1000A895809360000FBE90936000FFCF9AE06A
:102E200088E10FB6F894A895809360000FBE909348
:102E30006000FFCF8091680208959B019091760217
:102E40009430F1F48F708093E9008FEF9091E80057
:102E5000815095FD06C095ED9A95F1F7000081111E
:102E6000F5CF8091E80085FF0BC0BA01C90140E0B1
:102E700050E00E942D198091E8008E778093E80041
:102E8000089543E050E0BC0182E00E941D170895C0
:102E900046E050E0BC0182E00E941D170895CF93E8
:102EA000DF93EC0180911201811105C048E050E0F0
:102EB000BE0181E00BC080916A0287FF03C040E23F
:102EC00082E002C048E081E050E0BE010E941D1790
:102ED00080E2FE01A8E4B2E001900D928A95E1F74C
:102EE000DF91CF91089580917502811109C00E94F0
:102EF000B81A0E94151B8091E20084608093E20062
:102F000008951092750208950E9426160895609102
:102F1000720281E0611101C080E00E940D160895E7
:102F20009091760281E0943009F080E06091720225
:102F30000E941316089542E061EC81E00E94311A6C
:102F400042E261EC82E00E94311A9091760281E0C7
:102F5000943009F080E0609172020E941D1608957D
:102F600080917802833009F461C030F4813071F0CF
:102F7000823009F49BC008958A3009F487C08B30F1
:102F800009F46CC0893009F0A9C020C08091770293
:102F9000813A09F0A3C08091E800877F8093E80020
:102FA00080917B0290917C02892B21F460E288E47D
:102FB00092E003C060E080E090E070E00E9472194F
:102FC0008091E8008B778093E800089580917702E4
:102FD000813209F083C080917B0290917C0202973C
:102FE00008F07CC08091E800877F8093E8008091A2
:102FF000E80082FD05C0809176028111F8CF6EC095
:103000002091F3008091F20090E0922B029731F42E
:103010008091F100813011F0863021F48091F1002F
:10302000809368028091E8008B7754C0809177028A
:10303000813A09F053C080917B0290917C02892BE8
:1030400009F04CC08091E800877F8093E800809170
:10305000E80080FFFCCF8091120137C08091770299
:103060008132E1F580917B0290917C02892BB1F550
:103070008091E800877F8093E8000E94661A809123
:103080007902809312010E94FD05089580917702D4
:10309000813221F58091E800877F8093E8000E94CB
:1030A000661A80917A02809369020895809177026E
:1030B000813AA1F48091E800877F8093E8008091B5
:1030C000E80080FFFCCF809169028093F10080913D
:1030D000E8008E778093E8000E94661A089584B70E
:1030E000877F84BF0FB6F894A895809160008861AF
:1030F00080936000109260000FBE90E080E80FB6F1
:10310000F89480936100909361000FBE0E94201696
:1031100008950E94B81A0E94151BE2EEF0E080812B
:103120008460808378940E94A01D08958AE091E0D5
:103130000E9493140895809176028530A9F48091BD
:103140007602853079F40E94781680917402882383
:10315000B1F30E943916882391F30E9417190E9437
:10316000FD05EDCF0E94A316089508959A014091A0
:103170007D0250917E020E94BE180895492F552766
:1031800043305105C9F060F44130510581F04230BF
:10319000510509F044C08BE390E040E751E043C0A3
:1031A00041325105E1F04232510549F138C082E126
:1031B00090E04BEA51E037C099278130910549F002
:1031C00028F0029761F5E2E3F1E005C0ECE6F1E0FA
:1031D00002C0E6E5F1E0849190E0AF0124C0611502
:1031E000710541F061307105D1F489E090E04BE95F
:1031F00051E019C089E090E042E851E014C0611547
:10320000710541F06130710551F486EB90E04DEBB2
:1032100051E009C084E490E043E752E004C080E05C
:1032200090E040E050E0F90151834083089580E14F
:1032300089BD82E189BD09B400FEFDCF8091D8002F
:103240008F7D8093D8008091E00082608093E000C1
:103250008091E00081FDFCCF0895A0E0B0E0E3E3C1
:10326000F9E10C94DF1DEC018B017A010E94851AB3
:10327000811133C0E114F10439F0F70180819181AB
:10328000081B190BC80FD91FC12CD12C0115110512
:1032900019F18091E80085FD16C08091E8008E77D5
:1032A0008093E800E114F10449F0F70180819181F5
:1032B000C80ED91ED182C08285E00FC00E94851A37
:1032C000882321F30AC089918093F10001501109EC
:1032D000FFEFCF1ADF0ADACF80E0CDB7DEB7E8E044
:1032E0000C94FB1D20917D0230917E02261737073A
:1032F00048F06115710539F42091E8002E7720938C
:10330000E80001C0B901FC0120E06115710579F107
:10331000809176028823F1F18530F1F18091E80007
:1033200083FD3CC08091E80082FD2EC08091E800C2
:1033300080FFEBCF2091F3008091F20090E0922B80
:103340006115710551F08830910538F42191209371
:10335000F100615071090196F3CF21E0089709F05F
:1033600020E08091E8008E778093E800CECF211195
:10337000CFCF0AC080917602882361F0853061F05A
:103380008091E80083FD0AC08091E80082FFF2CFBF
:1033900080E0089582E0089583E0089581E0089533
:1033A00020917D0230917E022617370748F0611583
:1033B000710539F42091E8002E772093E80001C0D0
:1033C000B901FC0120E06115710591F1809176024F
:1033D000882309F440C0853009F43FC08091E8009B
:1033E00083FD3DC08091E80082FD2FC08091E80000
:1033F00080FFE9CF2091F3008091F20090E0922BC2
:103400006115710559F08830910540F4249120939D
:10341000F1003196615071090196F2CF21E00897D1
:1034200009F020E08091E8008E778093E800CBCF10
:103430002111CCCF0AC080917602882361F08530BB
:1034400061F08091E80083FD0AC08091E80082FF6E
:10345000F2CF80E0089582E0089583E0089581E04E
:103460000895982F973068F59093E900981739F0F0
:103470007091EC002091ED005091F00003C0242FDA
:10348000762F50E021FD02C09F5FECCF3091EB0022
:103490003E7F3093EB003091ED003D7F3093ED00A7
:1034A0003091EB0031603093EB007093EC0020938F
:1034B000ED005093F0002091EE0027FDE5CF80E075
:1034C00008958F708093E90081E0089580917702DC
:1034D00087FF11C08091E80082FD05C080917602CF
:1034E0008111F8CF11C08091E8008B770BC08091DB
:1034F0007602882349F08091E80080FFF8CF809120
:10350000E8008E778093E80008952091E4003091E0
:10351000E50095E64091EC00842F817040FF23C0C8
:103520008091E80080FD1DC080917602882399F08B
:10353000853099F08091EB0085FD11C04091E40049
:103540005091E5002417350729F3915011F09A01A5
:10355000E1CF84E0089582E0089583E0089581E05A
:10356000089580E008954091E80042FFDDCF08957E
:103570000E94271B0E942F1BE0EEF0E080818160FB
:103580008083E8EDF0E080818F77808319BCA7ED20
:10359000B0E08C918E7F8C9380818F7E808310929F
:1035A000750208950F931F93CF93DF930E94271BFB
:1035B0000E942F1BC8EDD0E088818F778883888197
:1035C0008068888388818F7D888319BC10927602F9
:1035D00010927202109274021092730200EE10E0C8
:1035E000F80180818B7F808388818160888342E0BD
:1035F00060E080E00E94311AE1EEF0E080818E7F91
:103600008083E2EEF0E08081816080838081886049
:103610008083F80180818E7F8083888180618883A8
:10362000DF91CF911F910F910895E8EDF0E0808137
:103630008F7E8083E7EDF0E080818160808384E08D
:1036400082BF81E0809375020E94D21A0895E8ED4E
:10365000F0E080818E7F80831092E20008951092C6
:10366000DA001092E10008951F920F920FB60F92A8
:1036700011242F933F934F935F936F937F938F9377
:103680009F93AF93BF93EF93FF938091E10082FFED
:103690000BC08091E20082FF07C08091E1008B7F28
:1036A0008093E1000E949F1D8091DA0080FF1FC07F
:1036B0008091D80080FF1BC08091DA008E7F8093BC
:1036C000DA008091D90080FF0DC080E189BD82E1E0
:1036D00089BD09B400FEFDCF81E0809376020E948F
:1036E000731705C019BC109276020E948117809151
:1036F000E10080FF19C08091E20080FF15C0809139
:10370000E2008E7F8093E2008091E20080618093EE
:10371000E2008091D80080628093D80019BC85E0D7
:10372000809376020E9487178091E10084FF30C069
:103730008091E20084FF2CC080E189BD82E189BDD7
:1037400009B400FEFDCF8091D8008F7D8093D80012
:103750008091E1008F7E8093E1008091E2008F7E76
:103760008093E2008091E20081608093E20080918A
:103770007202882311F084E007C08091E30087FD86
:1037800002C081E001C083E0809376020E9490171E
:103790008091E10083FF29C08091E20083FF25C072
:1037A0008091E100877F8093E10082E08093760240
:1037B000109272028091E1008E7F8093E1008091EF
:1037C000E2008E7F8093E2008091E200806180932E
:1037D000E20042E060E080E00E94311A8091F00057
:1037E00088608093F0000E948417FF91EF91BF9151
:1037F000AF919F918F917F916F915F914F913F9189
:103800002F910F900FBE0F901F9018951F920F923F
:103810000FB60F9211242F933F934F935F936F93A3
:103820007F938F939F93AF93BF93CF93DF93EF9348
:10383000FF93C091E900CF708091EC00D82FD17038
:1038400080FDD0E81092E9008091F000877F80939E
:10385000F00078940E944A1C1092E9008091F000D8
:1038600088608093F000CD2BCF70C093E900FF916A
:10387000EF91DF91CF91BF91AF919F918F917F9108
:103880006F915F914F913F912F910F900FBE0F90CD
:103890001F901895AAE2B0E0E0E5FCE10C94E41D6D
:1038A000E7E7F2E08091F100819322E0EF37F20741
:1038B000C9F70E94B0178091E80083FF2EC1809164
:1038C000770290917802492F50E04A30510508F074
:1038D00024C1FA01E557FF4F0C94CF1D803821F029
:1038E000823809F01AC108C0809173029091740265
:1038F000992389F082600FC080917B028F7087309E
:1039000008F00BC18093E9008091EB0085FB8827CC
:1039100080F91092E9009091E800977F9093E80079
:103920008093F1001092F100D1C0282F2D7F09F073
:10393000F4C0882319F0823061F0EFC080917902E1
:10394000813009F0EAC0933009F080E0809374027E
:103950002EC08091790281112AC080917B028F70E4
:103960002FEF280F263008F0D8C08093E90020916F
:10397000EB0020FF1CC0933021F48091EB008062AB
:1039800014C09091EB0090619093EB0021E030E047
:10399000A90102C0440F551F8A95E2F74093EA003F
:1039A0001092EA008091EB0088608093EB00109207
:1039B000E9008091E800877F8093E8000E94661A02
:1039C000ACC08111AAC0109179021F778091E300E9
:1039D0008078812B8093E3008091E800877F80933B
:1039E000E8000E94661A8091E80080FFFCCF809179
:1039F000E30080688093E300111102C082E001C0FF
:103A000083E08093760289C08058823008F085C0B8
:103A10008091790290917A028C3D53E0950779F577
:103A200083E08A838AE289834FB7F894DE01139694
:103A300020E03EE051E2E32FF0E050935700E491A4
:103A400020FF03C0E295EF703F5FEF708E2F90E094
:103A5000EA3010F0C79601C0C0968D939D932F5FFA
:103A6000243149F74FBF8091E800877F8093E800B9
:103A70006AE270E0CE0101960E94721916C0609150
:103A80007B0270917C02AE014F5F5F4F0E94B618BF
:103A9000BC01892B09F441C09091E800977F909375
:103AA000E80089819A810E94D0198091E8008B7783
:103AB0008093E80032C0803881F58091E800877FEC
:103AC0008093E800809172028093F1008091E80079
:103AD0008E7772CF811121C08091790290917A0204
:103AE00099270297D4F48091E800877F8093E800BB
:103AF00080917902809372020E94661A809172020C
:103B0000811106C08091E30087FD02C081E001C001
:103B100084E0809376020E949B178091E80083FFE7
:103B20000AC08091E800877F8093E8008091EB00D5
:103B300080628093EB00AA96E3E00C94001E089547
:103B4000CF93809176028823A1F0C091E900CF70D5
:103B50009091EC00892F817090FD80E8C82B109225
:103B6000E9008091E80083FD0E944A1CCF70C09359
:103B7000E900CF91089597FB072E16F4009407D023
:103B800077FD09D00E940C1E07FC05D03EF49095ED
:103B900081959F4F0895709561957F4F0895EE0F21
:103BA000FF1F0590F491E02D09942F923F924F92C0
:103BB0005F926F927F928F929F92AF92BF92CF92BD
:103BC000DF92EF92FF920F931F93CF93DF93CDB7C6
:103BD000DEB7CA1BDB0B0FB6F894DEBF0FBECDBF3E
:103BE00009942A88398848885F846E847D848C840F
:103BF0009B84AA84B984C884DF80EE80FD800C8118
:103C00001B81AA81B981CE0FD11D0FB6F894DEBFFA
:103C10000FBECDBFED010895AA1BBB1B51E107C02C
:103C2000AA1FBB1FA617B70710F0A61BB70B881F4C
:103C3000991F5A95A9F780959095BC01CD010895DB
:103C4000FB01DC0104C08D910190801921F44150E9
:103C50005040C8F7881B990B0895FB01DC0102C096
:103C600001900D9241505040D8F70895F999FECF38
:103C700092BD81BDF89A992780B50895A8E1B0E07A
:103C800042E050E00C947A1EDC01A40FB51F4150B5
:103C9000504048F0CB01840F951F2E910E94551E75
:103CA00041505040D0F70895262FF999FECF92BD8C
:103CB00081BDF89A019700B4021639F01FBA20BDF1
:103CC0000FB6F894FA9AF99A0FBE08950396272F23
:103CD0000E94551E0E94541E252F0E94551E242FFF
:103CE0000C94551E0196272F0E94551E0C94541EAD
:103CF000DC01CB01FC01F999FECF06C0F2BDE1BDAC
:103D0000F89A319600B40D9241505040B8F708959A
:043D1000F894FFCF55
:103D1400FE01280850011E0A14011A174F174817EC
:103D2400411701E200E900EA00B500B600B700CD92
:103D3400008301CC008A0192019401210223022410
:103D4400022502260227022A02B300B4006F007083
:103D5400009F01CB019F02A002818283E200E9005F
:103D6400EA00B500B600B700CD008301CC008A019B
:103D74009201940121022302240225022602270231
:103D84002A02B300B4006F0070009F01CB019F02B0
:0A3D9400A0028182836694909100E2
:00000001FF
