:100000000C94F4010C9411020C9411020C94110242
:100010000C9411020C9411020C9411020C94110214
:100020000C9411020C9411020C9449200C941B2185
:100030000C94DE1A0C9411020C9411020C9411020F
:100040000C9411020C9411020C9411020C941102E4
:100050000C9411020C94671B0C9411020C94110265
:100060000C9411020C9411020C9411020C941102C4
:100070000C9411020C9411020C9411020C941102B4
:100080000C9411020C9411020C9411020C941102A4
:100090000C9411020C9411020C9411020C94110294
:1000A0000C9411020C9411020C9411029604960403
:1000B000C204C20423054105220622064605AE05F8
:1000C000BF05BF0507140A14411454145C146714C7
:1000D0006A146A146A14B214B2146F147214771486
:1000E0008414911494149814A514131585151B15D4
:1000F000E514E9141F15EC1422152D15F7147B15C2
:10010000FB143115FF1435155F15031539156915E5
:1001100009153F154915F0142615F31429150E1568
:100120004415551575157715E11417158E15AC186E
:10013000B218A018A618B818BE18C4188321AA218E
:10014000A222AA21A222F6211922A22270227F2213
:100150000400050006000700040005000600070073
:100160000400050006000700040005000600070063
:1001700000000000000000002A2B28000000000002
:100180000000000000000000000000290000000046
:100190002C1E3420212224342627252E362D3738B4
:1001A000271E1F202122232425263333362E3738BD
:1001B0001F0405060708090A0B0C0D0E0F1011127B
:1001C000131415161718191A1B1C1D2F3130232D47
:1001D000350405060708090A0B0C0D0E0F10111245
:1001E000131415161718191A1B1C1D2F3130354CF6
:1001F00000000000000000000000000000000000FF
:1002000000000000000000000000000000000000EE
:10021000000000007E0F00D4FFFFFFC70000007841
:10022000220341006C0067006C00610062006E00F8
:10023000650074002D004D006500690073006800C2
:1002400069000000140361006C0067006C0061002D
:1002500062006E00650074000000040309040902D6
:100260005B00030100A0FA09040000010301010082
:100270000921110100012244000705810308000142
:1002800009040100020300000009211101000122FC
:100290002200070582032000010705030320000157
:1002A00009040200010300000009211101000122DC
:1002B000B6000705840320000112010002000000BF
:1002C0000860A102070001010200010660FF096148
:1002D000A1010962150026FF009520750881020919
:1002E00063150026FF00952075089102C0050109DD
:1002F00002A10185020901A10005091901290815BA
:1003000000250195087501810205010930093115A3
:1003100081257F95027508810609381581257F950D
:100320000175088106050C0A38021581257F9501A3
:1003300075088106C0C005010980A1018503190166
:100340002AB700150126B700950175108100C00578
:100350000C0901A101850419012AA002150126A09A
:1003600002950175108100C005010906A1018506ED
:10037000050719E029E71500250195087501810297
:100380000507190029EF1500250195F07501810277
:100390000508190129059505750191029501750357
:1003A0009101C005010906A101050719E029E7151A
:1003B00000250195087501810295017508810105E7
:1003C00007190029FF150026FF0095067508810012
:1003D00005081901290515002501950575019102EA
:1003E000950175039101C00011241FBECFEFDAE023
:1003F000DEBFCDBF11E0A0E0B1E0ECE4F7E402C065
:1004000005900D92AC39B107D9F722E0ACE9B1E023
:1004100001C01D92AE38B207E1F70E94CF100C94D4
:10042000A4230C940000843090F4611110C0443077
:1004300070F4E42FF0E094E0899FE00DF11D1124A9
:10044000EE0FFF1FE05BFE4F85919491089581E0D0
:1004500090E0089581E0089581E008950E942C02C3
:1004600008950E942E0208950E942C020895089576
:100470000E9437020895A6E0B0E0E1E4F2E00C94B7
:10048000002349835A839E833091A30189819A81F5
:10049000311115C03E81332359F0222349F00E94C7
:1004A000B507182F682F89819A810E949C0703C085
:1004B0000E94A907182F69817A81812F04C00E94A8
:1004C000B50769817A810E94AC0E2696E3E00C9410
:1004D0001C23FC01262F408151816281738184811C
:1004E00095810E943B020895CF93DF93EC0161E078
:1004F0000E946902BE010E943102DF91CF910895EE
:10050000CF93DF93EC0160E00E946902BE010E947C
:100510003802DF91CF91089508950E9497060E94B6
:100520008C022FEF84E39CE0215080409040E1F763
:1005300000C0000008950E948D020E948D1B089546
:100540000E948D020E949E1B08950F931F93CF93CC
:10055000DF938C0161E00E946902EC01B8010E9406
:10056000D413882309F450C0B801CE010E9434028C
:10057000882309F449C0B801CE010E949418882349
:1005800009F442C0B801CE010E94BD148823E1F1F4
:10059000B801CE010E94FA178823B1F1B801CE014B
:1005A0000E94D718882381F1F8018581882341F1C1
:1005B000C3308CE7D807D1F040F4C115FCE7DF0762
:1005C00091F0C130DC47A1F01BC0CB35ECE7DE0772
:1005D000A9F0CC35FCE7DF0771F0CA35DC4781F4C0
:1005E0000E94140C0DC00E949B020EC00E941C0CA5
:1005F0000E94A00209C00E940A0C02C00E94180CAE
:10060000C8010E942A0201C080E0DF91CF911F91B2
:100610000F9108950E94BC1A0E94310308950E9410
:1006200035030E94C51A0895089581E0089508953C
:10063000CF93DF93D82F0E941503C82F882319F07A
:100640008D2F0E9417038C2FDF91CF91089508956D
:10065000CF93C82F0E9414038C2F0E941803CF91B0
:10066000089580E00E94280308950E9427190E949F
:1006700028030895CF930E942719C82F80919E01C7
:10068000C81779F0C0939E010E944C1B60939F0194
:100690007093A0018093A1019093A2018C2F0E94DE
:1006A0002803CF910895ADE0B0E0E9E5F3E00C94C4
:1006B0000123488759876A877B878C879D8791119B
:1006C0000E943E0BCE01019627E0FC0111922A9573
:1006D000E9F726E0FE013896DC0101900D922A959B
:1006E000E1F72D8121110AC029813A814B815C817A
:1006F0006D817E818F810E94880A04C00E947402ED
:100700008111F2CF2D96E2E00C941D23FC0124818F
:10071000213021F4808191810E94E20708956623AF
:1007200019F00E94671102C00E94C2110E94391282
:100730000895CF93882309F450C0C82F8CEF8C0FF5
:10074000813AD0F46C2F80910001909101010E94B8
:10075000BC19882349F06C2F809100019091010110
:100760000E944A1A0E946A0B6C2F8091000190919E
:1007700001010E943C1A0CC080E28C0F883058F4B2
:10078000C77081E001C0880FCA95EAF70E94210B6B
:100790000E946A0B22C0EBE5EC0FE33040F4F0E07E
:1007A000E45BFE4F808190E00E945C1916C0E8E592
:1007B000EC0FEB3150F4F0E0EE0FFF1FEA5EFE4F5E
:1007C000808191810E94811908C083E38C0F83315D
:1007D00020F461E08C2F0E948F03CF91089588232D
:1007E000A9F19CEF980F913A40F4682F8091000195
:1007F000909101010E944A1A0DC090E2980F983022
:1008000060F4877091E001C0990F8A95EAF7892F0B
:100810000E94270B0E946A0B08959BE5980F933066
:1008200028F480E090E00E945C19089598E5980F04
:100830009B3128F480E090E00E948119089593E3B1
:10084000980F933118F460E00E948F0308951F936E
:10085000CF93DF93182FEB010E949903209741F06B
:100860008FE99FE00197F1F700C000002197F6CFD4
:10087000812F0E94EF03DF91CF911F91089589335B
:1008800019F060E070E002C060E570E00E942704AB
:100890000895882321F00E94210B0E946A0B08957D
:1008A000882321F00E94270B0E946A0B0895A0E084
:1008B000B0E0EDE5F4E00C94FB227C01162FC72F8D
:1008C000FC01D581068102950F700E94170B8823C9
:1008D000E9F0DD23D9F08C2F807F803451F080E265
:1008E000810F883098F0011104C08C2F807E8032F7
:1008F00069F080917A0282FF09C082E00E94DE0BDB
:100900000E94170B91E0D82ED92601C0D12CCC2EF5
:10091000C2948FE0C8228C2D90E08C30910508F0B5
:1009200091C1FC01EA5AFF4F0C94E4228C2F807F86
:10093000CF70882311F0C295C07FDD2399F0CC23BE
:1009400009F46CC180E2810F883010F0111104C0ED
:100950008C2F0E94210B03C08C2F0E94310B0E9410
:100960006A0B5CC1812F0E94EF03CC2309F46AC19A
:1009700080E2810F883038F1112329F18C2F0E94F9
:10098000370B24C08C2F807FCF70803211F0C2953E
:10099000C07F112319F0113099F13CC080917A0287
:1009A00082FD17C0DD2349F0CC2329F08C2F0E9453
:1009B000210B0E946A0B80E032C180E00E94EF03AD
:1009C000CC2309F43FC18C2F0E94270B0E946A0B95
:1009D00039C1DD2349F0002309F1013009F032C1AA
:1009E0008C2F0E94480B2EC101112CC18C2F0E940C
:1009F00050048C2F0E94540B8C2F0E94B10B22C1EB
:100A0000DD2321F0063008F01DC108C0053008F0D4
:100A100019C115C0DD2331F0011100C18C2F0E94D6
:100A2000490410C1002359F0193309F008C1FFEF40
:100A300027EE83E0F15020408040E1F7FEC08C2F8C
:100A40000E945004FFC08C2F86958695837019F004
:100A5000813061F0F7C0DD2321F0812F9C2F93704E
:100A600002C080E090E00E945C19F4C0DD2321F018
:100A7000812F9C2F937002C080E090E00E9481192A
:100A8000E9C06D2F812F0E948F03E4C08C2F8370EB
:100A900079F5D111DBC0412F429546954770440F3F
:100AA000440F212F2F70042E01C0220F0A94EAF761
:100AB00014FF08C08FE090E001C0880F4A95EAF764
:100AC000809501C080E0C695C695C370822BC23068
:100AD00049F058F4C13019F00E94EE06B7C00E94E8
:100AE000E806B4C00E94F406B1C00E94E506AEC09C
:100AF000DD2319F08C2F817001C08695882309F4BD
:100B0000A5C0412F429546954770440F440F212FB1
:100B10002F70042E01C0220F0A94EAF714FF08C0B8
:100B20008FE090E001C0880F4A95EAF7809501C0F8
:100B300080E0C695C695C370822BC23049F058F448
:100B4000C13019F00E943A0781C00E9434077EC06C
:100B50000E9440077BC00E94FD0678C0CF70DD2355
:100B600039F08C2F0E940F07812F0E9449046EC01C
:100B7000812F0E9450048C2F0E941B0767C0123FD8
:100B800021F128F4103F41F0113FC1F043C0133F61
:100B900019F1143F79F03EC0DD2341F0053008F033
:100BA00051C08C2F8F710E9428074CC0063008F06E
:100BB00049C0F7CF80917A0282FD18C0DD2339F059
:100BC0008C2F8F710E940F073DC0DD23C9F38C2F3E
:100BD0008F710E941B0736C0DD2329F08C2F8F7187
:100BE0000E9406072FC00E9402072CC0DD2349F097
:100BF000CF718C2F0E940F0763E08C2F0E94C00BD7
:100C000021C081E00E94DE0B0230E0F082E00E9411
:100C1000DE0B18C0DD2331F0002391F2812F0E94FA
:100C2000990310C0002399F2193349F49FEFE7EEBE
:100C3000F3E09150E040F040E1F700C00000812F68
:100C40000E94EF0388EF8C0D843020F40E94271956
:100C50000E942803DD2089F00E94130B80FD0DC047
:100C6000F70115820E940D0B0E940F07C7010E9419
:100C70005A060E940D0B0E941B07CDB7DEB7E8E0B5
:100C80000C9417230F931F93CF93DF93EC0168818C
:100C900079818D810E94ED078C010E9446070E9498
:100CA000D806B801CE010E945704DF91CF911F9161
:100CB0000F910895CF93DF93FC0124812223D1F07B
:100CC000EC010E94A50281110FC00E94170B88231E
:100CD00089F08D81882371F080917A0282FF0AC0A9
:100CE00082E00E94DE0B06C0CE010E944206CE01C9
:100CF0000E948002DF91CF91089580E090E00E94F1
:100D00005C1980E090E00E9481190E943E0B0E94D5
:100D10006A0B0E9458120E943912089580910001B6
:100D2000909101010E94581A0E947D0608950E9428
:100D30002E0B0E948E06089592959F70963079F042
:100D400010F4925001C09A50923068F4803F69F0DC
:100D500018F4883E40F409C0843F29F406C0883E58
:100D600020F0813F11F080E0089581E00895FC01BA
:100D70002481222339F0808191810E94E2070E9420
:100D80009C06089580E00895A6E0B0E0EAECF6E065
:100D90000C9401232696E2E00C941D23A7E0B0E01A
:100DA000E4EDF6E00C9401232796E2E00C941D2379
:100DB000089508950E94D90608950E94DA060895BC
:100DC0000E94DD068093A80108950E94E006089520
:100DD0009091A801892B0E94E00608959091A801A6
:100DE00089230E94E00608959091A80189270E9416
:100DF000E00608950E94D90608950E94FA0680939D
:100E0000A701089580E00E94FD06089591E001C0C9
:100E1000990F8A95EAF7892F0E94FD06089521E02F
:100E200030E001C0220F8A95EAF78091A701822B5A
:100E30000E94FD06089521E030E001C0220F8A954E
:100E4000EAF720958091A70182230E94FD0608956C
:100E500021E030E001C0220F8A95EAF78091A701D6
:100E600082270E94FD0608959091A701892B0E9478
:100E7000FD0608959091A70189230E94FD0608951B
:100E80009091A70189270E94FD0608950895962F45
:100E90009770A1E001C0AA0F9A95EAF793E07695C2
:100EA00067959A95E1F7FB01EE0FFF1F6E0F7F1F0D
:100EB000FA01E60FF71F40E050E0682F70E09081E4
:100EC0009B01042E02C0369527950A94E2F7217003
:100ED000219529272A23292721934F5F5F4F4330EC
:100EE000510569F708959B01782F777043E0969537
:100EF00087954A95E1F7FC01EE0FFF1F8E0F9F1FAC
:100F0000F901E80FF91F40E050E080E0219130E066
:100F1000072E02C0369527950A94E2F721703327F1
:100F2000042E01C0220F0A94EAF7822B4F5F5F4F15
:100F30004330510559F70895282F911109C0843085
:100F400038F4862F622F70E044EA51E00E94470790
:100F50000895911108C0843030F464EA71E090E0A3
:100F60000E947307089580E00895CF92DF92FF9268
:100F70000F931F93CF93DF936C010091A701809192
:100F8000A801082BC3E0D0E010E0C8010C2E02C07D
:100F9000959587950A94E2F780FD04C02197A8F7FC
:100FA000F12C07C0FC2EB6018C2F0E94B80E0197C1
:100FB000A9F38F2DDF91CF911F910F91FF90DF90BB
:100FC000CF900895CF93DF93EC010E94B507BE0147
:100FD0000E94B80EDF91CF9108951F93CF93DF93B6
:100FE000EB019091A301992321F0CB010E94E2072C
:100FF00013C0882349F0CB010E94B507182F682F32
:10100000CE010E949C0704C0CB010E94A907182FA3
:10101000BE01812F0E94B80EDF91CF911F910895DC
:10102000E1E0F0E0DF0102C0AA0FBB1F6A95E2F722
:10103000BD01DF0102C0AA0FBB1F4A95E2F7AD0157
:10104000462B01C0EE0F2A95EAF7942F98234913F7
:1010500002C08E2B0895E0958E230895242F462FED
:10106000682F8091A7010E9410080E94FD06089534
:101070001F93CF93DF93C091A90117E08091AA013C
:10108000C817A1F0D0E01C9FF0011D9FF00D1124A6
:10109000E555FE4F20813181428153816481758104
:1010A00086810E94CE062196C770E8CFDF91CF914E
:1010B0001F9108952091E3013091E4014091E501F1
:1010C0005091E6016091E7017091E8018091E9019A
:1010D0000E94CE060895CF93DF938091E901829517
:1010E0008F7009F04EC08091E801882309F449C04F
:1010F0008091A9014091AA015091E4016091E3011E
:10110000C091E501D091E60177E08417D1F190E03C
:10111000789FF001799FF00D1124DF01A555BE4F96
:1011200014962C911497222349F111962C91119722
:10113000251324C02C91261321C015962C911597A8
:1011400021111CC012962D913C9113972C1B3D0B25
:10115000283C310598F48091E9018F70806180937B
:10116000E901EF54FE4F80818F708061808383EEB0
:1011700091E00E945A060E94380803C001968770C9
:10118000C4CFDF91CF9108952091A9019091AA0138
:1011900057E02917A9F030E0529FF001539FF00D5E
:1011A0001124E555FE4F7181761306C070817813C6
:1011B00003C07581741306C02F5F3F4F2770E9CFBE
:1011C00080E0089581E00895A4E1B0E0EAEEF8E05F
:1011D0000C94F7228C0186E0F801DE011F96019045
:1011E0000D928A95E1F7F8018481E58093EEA92EAE
:1011F00091E0B92E9091E701911118C0882309F46C
:1012000080C1EE20D9F1C8010E94B706F82E8823CC
:10121000A9F187E0F801D50101900D928A95E1F7D7
:10122000C5010E9486030E946B0898C0F801C08027
:10123000D18082809380F090E8012091E501309187
:10124000E601A401421B530BFF2009F406C1483CF0
:10125000510508F0AFC0882309F455C18091E90118
:10126000282F207F9091E401222361F09D1509F43D
:1012700062C0C8010E94B706811173C0C8010E94F4
:101280005A063FC19D1115C09091E3019C1111C0F8
:10129000E1100FC08F7080618093E9010E945A08AD
:1012A00083EE91E00E945A068091E901F80186835D
:1012B00026C1E1103AC040E06D2D8C2D0E94C4087B
:1012C00040E06D2D8C2D0E94C408E82E811117C1BD
:1012D000CF86D88A8F8598890E94E207292F229588
:1012E0002F70243020F49F70223028F009C02A503B
:1012F000223080F014C0992349F0811107C013C037
:10130000992321F0F8019681907F69F0805E883002
:1013100030F409C0803F38F0815F833020F0C8018D
:101320000E945A06EF2CFE2CEEC08091E9018160EC
:101330008093E901E4C09091E3019C119ACFE11000
:1013400098CFF8018683C8010E945A0687E0F80109
:10135000A3EEB1E001900D928A95E1F70E945A0840
:10136000D2C0EE2009F48ACF2091E901822F829524
:101370008F7090E002978CF08091E3019091E401EE
:10138000998788879B868A868091E7018C871D864E
:101390002E87CE0108960E945A0687E0F801A3EE38
:1013A000B1E001900D928A95E1F70E946B080E94CE
:1013B0005A08A7C09091E901292F207FA1F4682D38
:1013C0009A8A898AA6017A899E2D0E94C40683EE94
:1013D00091E00E945A0687E0F50111928A95E9F79B
:1013E0000E945A088CC0882309F48DC08091E401C2
:1013F0008D1111C08091E3018C110DC0E1100BC063
:10140000F8019683C8010E945A0687E0F5011192FF
:101410008A95E9F778C0C8010E94B706882309F4C5
:101420002DCFEE2009F42ACF2091E901822F829559
:101430008F7090E002970CF4B0CF8091E30190910F
:10144000E4019A8389839C828B828091E7018D835A
:101450001E822F83CE0101969ECF483C510508F095
:1014600040C0882309F44DC0FE2CEE2009F406CFBD
:101470008091E4018D1127C08091E3018C1123C07C
:101480009091E90190FD16C0892F82958F70282FC9
:1014900030E02115310571F0F80196832F303105C8
:1014A00009F451CF8F5F982F9295907F86818F702E
:1014B000892B48CF87E0F801A3EEB1E001900D92AF
:1014C0008A95E1F720C0C8010E94B706811165CF57
:1014D0008091E90181608093E901C8010E945A0668
:1014E00012C0682D9A8A898AA6017A899E2D0E9447
:1014F000C40687E0F50111928A95E9F72FCFF12C08
:1015000002C0FF24F3948F2D6496ECE00C94132317
:10151000AEE0B0E0EEE8FAE00C94002328873987CB
:101520004A875B876C877D878E87CE0108960E94ED
:10153000E408882361F06C856623A9F12885398544
:101540004A855B857D858E850E94CE062CC087E00E
:10155000FE013896DE01119601900D928A95E1F711
:101560006C85662301F12091AA0130E0C901019642
:10157000877099274091A90150E084179507E1F100
:101580006D8397E0929FD001939FB00D1124A555D4
:10159000BE4FFE01319601900D929A95E1F780932E
:1015A000AA010E94380817E08091A9019091AA0130
:1015B000891779F1189FC001112485559E4F0E940B
:1015C000E408882331F1E091A9011E9FF001112464
:1015D000E555FE4F208131814281538164817581BF
:1015E00086810E94CE068091A90190E001968770C5
:1015F00099278093A901D8CF0E9497061092AA013B
:101600001092A901E3EEF1E087E0DF011D928A95D7
:10161000E9F72E96E3E00C941C2380910A0286954C
:1016200086958695089580910A0287700895909115
:101630000A02977081E009F480E0089580912E02FB
:10164000089590912E02892B80932E020895809503
:1016500090912E02892380932E02089510922E02DB
:10166000089590912D02892B80932D0208958095E5
:1016700090912D02892380932D02089510922D02BE
:10168000089508950E94410B08950E94420B089509
:1016900090910C02292F2823821729F0982B9093E0
:1016A0000C020E94450B089590910C02292F2823CB
:1016B00031F08095892380930C020E94450B089598
:1016C00080910C02882329F010920C0280E00E9485
:1016D000450B0895CF93DF93E0910001F091010154
:1016E00080912E028083E0910001F09101019081B0
:1016F00080912D02892B808380910C02882381F0B8
:10170000E0910001F09101019081892B808380910B
:101710000001909101010E94A61981110E94600BA5
:10172000C0910001D091010140E250E06AEE71E009
:10173000CE010E943C23892B59F080E2FE01AAEEE3
:10174000B1E001900D928A95E1F7CE010E94341923
:10175000DF91CF9108950E94410B08950E94AB0B39
:10176000089590910B02292F282331F08095892329
:1017700080930B020E94AE0B08950E94410B0895C6
:1017800090917A0292FF11C098E0899F90011124F4
:10179000262B20930A020E940F0780910A02869549
:1017A000869586950E94BD0B08950E940F070895A7
:1017B00010920A0280E00E94BD0B089590910A02E7
:1017C0008095892380930A02282F277069F498173F
:1017D00059F090917A0292FF07C08695869586957A
:1017E0000E941B070E94D80B089590917A0292FBE9
:1017F000222720F9281769F080FB92F990937A024A
:101800008091790290917A020E943E0C82E00E94BF
:10181000DE0B089580917A0282FB882780F991E09F
:1018200089270E94F50B089581E00E94F50B089529
:1018300080E00E94F50B08956FEF7FEF80E090E06D
:101840000E948E23089580E090E00E945A23863EF5
:101850009E4F19F40E946813089580E0089582E075
:1018600090E00E945223089583E090E00E9452236A
:10187000089584E090E00E945A230895BC0184E01A
:1018800090E00E948E230895AB01BC018FE090E0B0
:101890000E9482230895AB01BC0183E190E00E9485
:1018A0008223089560E070E0CB010E944B0C089504
:1018B00060E070E0CB010E94440C0E94520C08953D
:1018C000A8E0B0E0E6E6FCE00C94012366EE7EEFD3
:1018D00080E090E00E948E2360E082E090E00E9431
:1018E000702360E083E090E00E9470231092A801D2
:1018F00060E074E184E090E00E948E2360E086E086
:1019000090E00E9470236FEF87E090E00E947023C8
:1019100040E050E0BA0188E090E00E94822360E05D
:1019200084E290E00E94702360E087E190E00E94F2
:10193000702360E08CE090E00E94702360E08DE016
:1019400090E00E94702319821A821B821C821D82E1
:101950001E821F82188648E050E068E170E0CE01E8
:1019600001960E94602340E050E0BA0180E290E0DE
:101970000E94822380E00E9481130E94B6130E947D
:10198000580C2896E2E00C941D230E94600C0895E8
:10199000682F8EE090E00E9470230895A6E0B0E0EA
:1019A000E4EDFCE00C94FF220E94401B8C0180912E
:1019B0002F02909130020817190781F019821A82BC
:1019C0000E94401B682F49815A81792F80E090E066
:1019D0000E9453031093300200932F022696E4E0F6
:1019E0000C941B230E944C1B6093360270933702A9
:1019F00080933802909339026093320270933302DD
:101A00008093340290933502089581E0089581E037
:101A100008950E94070D089508950E940C0D0895E1
:101A20000E940C0D08950E94100D08950E940C0D47
:101A300008950E94160D08950E940C0D089588EADD
:101A40009FE00E94DC100E941C0D0E94190D089559
:101A50000E940D0D0E940C0D08950E94C70F0E9458
:101A6000270308950E94371B0E94C6130E94561038
:101A70000E942D0D0E94130D0895A6E0B0E0E3E44E
:101A8000FDE00C94FB220E94050D811103C00E9411
:101A9000CE0C3DC00E9462101091310280E00E9485
:101AA000E20F1817A1F380913A0281FD0E94E80F1E
:101AB0000E94090DD82E80E00E94E20FE82EF090DF
:101AC0003102F82611F110E001E0CC24C3948F2DEF
:101AD0008023A9F0DD2099F019831A820E94401B0F
:101AE0009C838B83CD8291E08E2D802309F490E03E
:101AF00049815A816B817C818D810E9453031F5FD4
:101B0000000F143021F7E09231020E94F20C0E9483
:101B10007A120E943A032696E8E00C9417231F934A
:101B2000CF93DF930E94BD0EEC01C11580E5D8076D
:101B3000E8F5C11590E4D90708F0A8C0C03ED1056A
:101B400030F5CD3CD10508F094C0C83AD10578F401
:101B5000C53AD10508F083C0C130D10509F47CC075
:101B600008F4F2C0C430D10508F0F1C0EDC0C33CA8
:101B7000D10508F0E9C0C85AD0E0CC0FDD1FC15B29
:101B8000DE4F0990D881C02DCE019464E1C0C1150B
:101B900080E2D80708F0CBC0C11591E0D90708F062
:101BA0006BC0C83ED10508F4D2C0CEC0C03682E5B5
:101BB000D80728F5C03492E5D90708F079C0C032BB
:101BC00082E5D80708F06CC0C11592E5D90708F482
:101BD00081C04C2F4695469580E2489FA001112474
:101BE000C37021E030E0C90102C0880F991FCA9577
:101BF000E2F7EA01C82BD92BCE019D68A9C0C03AF3
:101C000082E5D807B8F48C2F8F71C03892E5D907D8
:101C100008F07BC08695869590E2899F90011124FB
:101C2000C37081E090E002C0880F991FCA95E2F767
:101C30009A6868C0C03C82E5D80708F46DC0C03E11
:101C400092E5D90708F080C0CF71DD27DC2FCC27C3
:101C5000CE01806F906A7CC081E090E079C0C55A67
:101C6000D0E0CB57DE4F8881C82FD0E0CE01906402
:101C70006FC0CE0190656CC08D2F0E94590F182F38
:101C8000CE0199270E94BD0E1F715CC0CE0199271D
:101C90000E94BD0ECC27DF70D06A8C2B9D2B58C0C4
:101CA000CF71D0E0DC2FCC27CE01816F906A50C07D
:101CB0008C2F8F718695869590E2899F90011124D3
:101CC000C37081E090E002C0880F991FCA95E2F7C7
:101CD0009C6818C08C2F8F710E94590F95E0D69583
:101CE000C7959A95E1F7CF70D0E0DC2FCC27282F4D
:101CF00030E084FF05C084E0220F331F8A95E1F7AE
:101D0000D069CE01822B932B23C090E0D82FCC2713
:101D1000CE01846F906A1CC08C2F8F710E94590F66
:101D20008F7190E0D82FCC27CE01906211C08D2FFB
:101D30008F710E94590F182FCE0199270E94BD0E56
:101D40001F719062912B04C080E090E001C0CE0131
:101D5000DF91CF911F910895711107C0643028F46D
:101D6000462F60E00E941217089580E090E00895E9
:101D70000E94AC0E0E948F0D08958238910569F182
:101D8000B0F48133910509F475C048F489329105A6
:101D900009F467C08A32910509F471C0089585334A
:101DA000910509F459C089339105B9F00895833E2E
:101DB000910589F138F4803E9105D1F0823E91057C
:101DC00029F10895863E9105C9F1873E9105D9F123
:101DD000843E910509F06CC027C02091790220FD56
:101DE00057C021FD55C020917A0223FD5BC00895A4
:101DF0008091790280FD48C080917A0280FF48C0BE
:101E00008091790284FD46C083EE51C080917902B1
:101E100082FF3CC0F5CF8091790282FD37C080916E
:101E20007A0280FD35C0ECCF80917A0281FF36C006
:101E30008091790284FD2EC087EE39C080917902AD
:101E400083FF2AC0F5CF8091790283FD25C0809160
:101E50007A0281FD23C0ECCF8091790285FD22C0FA
:101E60001FC08091790285FD1BC080917A0283FF9B
:101E700019C00AC08091790286FD16C017C08091F2
:101E8000790286FD13C010C089E311C082EE0FC035
:101E900080EE0DC080E00BC086EE09C084EE07C066
:101EA00085E305C089E203C08AE201C081E390E0D6
:101EB00008959091790292FF10C041E0282F24717B
:101EC000243009F040E031E0282F2871283009F053
:101ED00030E0431711F02CE0822793FF10C041E05F
:101EE000282F2471243109F040E031E0282F287197
:101EF000283109F030E0431711F02CE082273091AF
:101F00007A0230FF10C051E0282F2171213009F0F2
:101F100050E041E0282F2871283009F040E05417A4
:101F200011F029E0822731FF10C041E0282F2171F4
:101F3000213109F040E031E0282F2871283109F0E3
:101F400030E0431711F029E0822794FD877E089541
:101F500080E008950E941C0C08950E9462102FEFEB
:101F600086E791E0215080409040E1F700C00000FA
:101F70000E94621080E00E94E20F80FF04C00E9475
:101F8000AA0F0E948D1B08950E94AD0F08950E9414
:101F9000230C811102C00E94C50C0E942F0C80935B
:101FA0003A020E94390C90937A02809379020E943F
:101FB000C40F0E94340C0E94E5068091A7010E9484
:101FC000FA060895E82FF0E0E458FD4F8081089567
:101FD000089508950E94E90F08950E94EA0F089558
:101FE0000E94E90F08950E94F00F0895CF93DF93A8
:101FF000A8E8B1E06CE871E041E050E08D918F3FDE
:1020000031F46A177B07D1F7DF91CF910895E82F5C
:10201000E295EF70F0E021A18F70EA0102C0CC0FD1
:10202000DD1F8A95E2F7CE019C2F9095922391A314
:1020300092A1892B82A3E5CF0F931F93CF93DF93B8
:10204000DC0170E08B01000F111F000F111F40E039
:1020500050E0F1E0E0E0CA01800F911F88579E4FE9
:10206000EC0198819F3F89F0292F22952F7030E055
:10207000E90128A130E09F7002C0359527959A9517
:10208000E2F720FD02C02F2F02C020E030E0E22B5B
:10209000FF0F4F5F5F4F44305105E9F6A60FB71FA2
:1020A000EC93DF91CF911F910F9108950E94F60F4D
:1020B00010927C0210927B0281E00E9487100E94A5
:1020C000F30F0895A1E0B0E0E8E6F0E10C940023FE
:1020D000198260E0CE0101960E941C1090917B0253
:1020E000898121E0981301C020E0981380937B023E
:1020F00041E06CE772E08BE792E00E948810182FB5
:102100000E94ED0F812F2196E3E00C941C2308958B
:10211000EF92FF920F931F93CF93DF937C018B017C
:10212000C42F222349F081E080933D020E94401B8E
:1021300090933C0280933B0280913D02811102C04A
:1021400080E01AC080913B0290913C020E94581B93
:102150000597B0F3D0E0AE01B701C8010E943C235F
:10216000892B39F0AE01B701C8010E94492381E0F3
:1021700001C080E010923D02CDB7DEB7E6E00C94DE
:1021800019230E942D1D0E94320D0E943A1D0895B0
:102190000E943F1D0E943D0D0E94591D08950E94FE
:1021A000D71A0E94131D0E941F0D0E94C1100E9489
:1021B000C8100E94280DFBCF90939D0180939C0135
:1021C0000895282F35EB2303C001112497FF03C086
:1021D0008058910902C080589F4F892F089580919F
:1021E000440280FF06C06091070170E0660F771F10
:1021F00026C081FF04C06091070184E005C082FF12
:1022000007C06091070188E0689FB001112417C0E2
:10221000909143029923D1F060910601961788F7B7
:102220002091070188E0289F90011124929FA0012E
:10223000939F500D112470E0CA010E94D022603893
:10224000710540F46115710519F406C068E070E08D
:10225000862F08958FE7089581E0089580914402C4
:1022600080FF08C06091030170E0759567957595D2
:10227000679521C081FF06C06091030170E07595EC
:10228000679519C082FF04C06091030170E010C01F
:1022900090914202992399F0609102019617A0F75C
:1022A00080910301899FC001112470E00E94D02217
:1022B0006038710540F46115710519F406C061E0DC
:1022C00070E0862F08958FE7089581E008958D3C92
:1022D00021F40E94EF10819504C08E3C29F40E94E5
:1022E000EF108093480208958F3C21F40E94EF1074
:1022F000819504C0803D29F40E94EF10809347022D
:102300000895893D19F40E942E1105C08A3D31F4CB
:102310000E942E1181958093490208958B3D21F4EE
:102320000E942E11819504C08C3D29F40E942E112B
:1023300080934A0208959FE2980F983078F421E044
:1023400030E0A90102C0440F551F9A95E2F7CA0177
:1023500090914602892B8093460208958D3D21F489
:102360008091440281600BC08E3D21F48091440233
:10237000826005C08F3D29F480914402846080937F
:10238000440208958D3C39F49091480297FF35C07E
:102390001092480259C08E3C29F4909148021916B7
:1023A000BCF32BC0909147028F3C29F497FF25C0C6
:1023B0001092470249C0803D19F41916CCF31DC094
:1023C00090914902893D29F41916BCF410924902F2
:1023D0003BC08A3D19F497FF10C0F8CF8B3D39F40C
:1023E00090914A0297FF09C010924A022DC08C3D7D
:1023F00021F490914A021916BCF39FE2980F98308D
:1024000080F421E030E0A90102C0440F551F9A95E5
:10241000E2F7CA0180959091460289238093460293
:1024200013C08D3D21F4809144028E7F0BC08E3D00
:1024300021F4809144028D7F05C08F3D29F4809165
:1024400044028B7F8093440280914702811106C031
:1024500080914802811102C010924302809149028A
:10246000811106C080914A02811102C0109242027D
:1024700008950E94401B20914702211104C0209121
:102480004802222321F09093410280934002209140
:102490004902211104C020914A02222321F0909385
:1024A0003F0280933E0285E492E00E944E19089517
:1024B000E5E4F2E086E0DF011D928A95E9F71092EB
:1024C000430210924202109244020895FC0182815C
:1024D00081110DC0838181110AC08481811107C0DF
:1024E00091E08581811101C090E0892F01C081E0D8
:1024F00081700895A6E0B0E0E0E8F2E10C940023DA
:1025000086E0E5E4F2E0DE01119601900D928A95F5
:10251000E1F710924702109248021092490210927D
:102520004A028B81811104C08C81882309F456C032
:1025300080914002909141020E94581BAC01909101
:102540004302992339F02091080130E02417350720
:1025500058F044C0209109018AE0289F900111247D
:102560002417350718F03AC09F3F19F09F5F9093EA
:1025700043021B81112361F00E94EF10111614F029
:102580009FEF01C091E0989F902D112490934702F6
:102590001C81112361F00E94EF10111614F09FEFBF
:1025A00001C091E0989F902D112490934802809152
:1025B0004702882399F010914802112379F00E9474
:1025C000E110811101C081E080934702812F0E94B8
:1025D000E110811101C081E0809348028D81811159
:1025E00004C08E81882309F456C080913E029091E8
:1025F0003F020E94581BAC0190914202992339F08E
:102600002091040130E02417350758F044C0209190
:1026100005018AE0289F900111242417350718F03E
:102620003AC09F3F19F09F5F909342021D81112392
:1026300061F00E942E11111614F09FEF01C091E07D
:10264000989F902D1124909349021E81112361F0CF
:102650000E942E11111614F09FEF01C091E0989F77
:10266000902D112490934A0280914902882399F079
:1026700010914A02112379F00E94E110811101C0EA
:1026800081E080934902812F0E94E110811101C0F5
:1026900081E080934A02BE016F5F7F4F85E492E044
:1026A0000E946A1A811105C085E492E00E946612B8
:1026B00081110E94391286E0FE013196A5E4B2E054
:1026C00001900D928A95E1F72696E3E00C941C2385
:1026D00085E290E00E945223833281F486E290E00A
:1026E0000E945223803151F487E290E00E945223ED
:1026F00091E0813309F090E0892F01C080E0817082
:102700000895CF93C82F811102C06FEF01C063E21B
:1027100085E290E00E947023C11102C06FEF01C0FA
:1027200060E186E290E00E947023C11102C06FEF69
:1027300001C061E387E290E00E947023CF91089589
:10274000089588E290E00E945223682F70E080E0B4
:1027500090E008950895CF93C62F0E94AA136C2F7E
:1027600088E290E00E947023CF91089580E00E945B
:10277000811360E070E0CB010E94AB130E94BA1697
:102780000E94671781E00E94811308950E94A013A0
:102790000E94A1130E94AA130E946813811102C013
:1027A0000E94B613089508959C01FB01858188233A
:1027B00051F0A90157574038510530F4C9010E9422
:1027C000771780E0089581E008952FEFFC012083C2
:1027D00008950E94E513089580E00895A0E0B0E018
:1027E000E4EFF3E10C94F922EC01F62E0E94EC13D5
:1027F0008111BEC0E8818E2F90E0FC013197E3315A
:10280000F10508F0AFC0EE59FF4F0C94E422198295
:102810008CE06BC08981823089F030F4813009F01E
:10282000A1C00E944C1B0CC0833079F0843009F0A9
:1028300099C01A821B821C821D8296C00E94A1131D
:102840009A838B837C836D838FC0EA806E0183E0E3
:10285000C80ED11C00E010E0AE2CB12CC501800FD9
:10286000911F892B09F080C08E2D800F0E94E20FEE
:10287000F60181936F010F5F1F4F0C31110571F746
:1028800073C08981823039F0853009F06BC08A814C
:102890000E94D31369C06A817B818C819D810E94D3
:1028A000EA220E94AB1360C04B816A8189810E9439
:1028B0007E169C838D8358C02C813D81322723272F
:1028C00032274B816A8189810E949F164DC00E94E8
:1028D000BA164AC06F2DCE010E94E91345C00E946E
:1028E0001E1724C00E94201799838A833DC06B81E4
:1028F00070E089819A81AE014C5F5F4F98278927EC
:1029000098270E94231730C06B8170E089819A81DB
:10291000AE014C5F5F4F9827892798270E94461782
:1029200023C00E94671720C00E946B1689831CC0B9
:102930006B8170E089819A81AE014C5F5F4F98276F
:10294000892798270E94D2160FC06B8170E0898179
:102950009A81AE014C5F5F4F9827892798270E9484
:10296000F31602C08FEF88836F2DCE010E94021CE8
:10297000CDB7DEB7EAE00C941523CF93DF93FC01CB
:10298000DB0115968C91882309F4DDC09F01305737
:102990002332310508F0D8C0EF010E94390C909322
:1029A0007A0280937902FE01E150F047E232F105AC
:1029B00020F4EB58FF4F0C94E4228091790281605F
:1029C000AAC080917A028860B2C080917902826048
:1029D000A2C08091790220C08091790288609BC05A
:1029E00080917A021EC080917A028260A0C080919C
:1029F0007902806190C08091790280628CC0809160
:102A00007902806488C00E9497068091790280686C
:102A100082C080917902886084607DC080917A0252
:102A20008260816084C0809179028E7F74C08091C1
:102A30007A02877F7CC0809179028D7F6CC0809103
:102A4000790220C080917902877F65C080917A02E7
:102A50001EC080917A028D7F6AC0809179028F7E3C
:102A60005AC0809179028F7D56C0809179028F7B08
:102A700052C00E949706809179028F774CC0809156
:102A80007902877F8B7F47C080917A028D7F8E7F0E
:102A90004EC08091790282FB222720F991E0922793
:102AA00090FB82F990FB83F936C080917A02982FCF
:102AB000909591708E7F892B90FB81F938C0809121
:102AC000790286FB222720F991E0922790FB86F974
:102AD00022C00E9497068091790287FB222720F965
:102AE00091E0922790FB87F916C081E001C080E059
:102AF0000E94C80C1EC08091790284FB222720F915
:102B000091E0922790FB84F906C080917902982F7A
:102B1000909590FB80F9809379020BC080917A02A6
:102B200083FB222720F991E0922790FB83F9809381
:102B30007A028091790290917A020E943E0C0E9462
:102B4000970680E001C081E0DF91CF910895A0E079
:102B5000B0E0EDEAF5E10C94FC22E82FF0E0E0595A
:102B6000FE4FD490282F26952695269530E0F90122
:102B7000E05FFD4F0491877010E0082E02C01595AC
:102B800007950A94E2F701701127F901E050FE4F12
:102B9000E490F12C082E02C0F594E7940A94E2F731
:102BA00091E0E922FF24F901E051FE4FC491D0E009
:102BB00002C0D595C7958A95E2F7C170DD2701154A
:102BC000110519F081EE0E949903E114F10419F046
:102BD00086EE0E9499038D2D0E943F04E114F104BA
:102BE00019F086EE0E94EF030115110519F081EE30
:102BF0000E94EF03CD2B19F08CE20E943F04CDB769
:102C0000DEB7E7E00C941823EF92FF920F931F9327
:102C1000CF93DF93EC01162F0AE08881882309F413
:102C200055C0813009F043C08981813041F47E0173
:102C300082E0E80EF11C8A810E943F0409C08230C4
:102C400049F47E01E2E0EE0EF11C8A810E949903B4
:102C5000E7012FC0833041F47E01F2E0EF0EF11C5A
:102C60008A810E94EF03F4CF843011F0219621C0B5
:102C70002A81229680E090E030E0205331092A300A
:102C8000310558F4089FA001099F500D1124C90176
:102C9000840F951F21962881EFCF009751F0EFE91F
:102CA000FFE03197F1F700C000000197F6CF0E94D6
:102CB000A7152196812F882309F4AFCFEFE9FFE014
:102CC0003197F1F700C000008150F5CFCDB7DEB7E6
:102CD000E6E00C94192384E0089550E0440F551F5A
:102CE00028E0629F400D511D11249A0168E0869FE3
:102CF000200D311D1124C901899608950F931F934A
:102D0000CF93DF938430A0F4611112C0443080F47B
:102D10000E946D168C010E94522390E0D82FCC2780
:102D2000C80101960E9452239E01282BC90102C0AE
:102D300080E090E0DF91CF911F910F9108950F9364
:102D40001F93CF93DF93843080F461110EC0443021
:102D500060F4E9010E946D168C016D2F0E947023B2
:102D60006C2FC80101960E947023DF91CF911F91B3
:102D70000F910895CF93DF93C0E0D0E04D2F60E036
:102D80008C2F0E9413029C014D2F60E08C2F0E941B
:102D90009F16DF5FD43091F7CF5FC43071F7DF91BA
:102DA000CF910895EF92FF920F931F93CF93DF93EC
:102DB000EA017A01E60EF71E8C01C8018996CE154C
:102DC000DF0561F00032110520F40E945223888350
:102DD00001C0188221960F5F1F4FEFCFCDB7DEB72E
:102DE000E6E00C941923EF92FF920F931F93CF9379
:102DF000DF93EA017A01E60EF71E8C01C80189967D
:102E0000CE15DF0551F00032110518F468810E94DB
:102E1000702321960F5F1F4FF1CFCDB7DEB7E6E0ED
:102E20000C941923843038F4611105C0443018F42F
:102E30000E947E16089580E090E0089580E1089554
:102E400087EB93E00895EF92FF920F931F93CF9338
:102E5000DF93EA017A01E60EF71E8C01C801875B59
:102E60009F4FCE15DF0569F0073B23E0120720F4E2
:102E70000E945223888301C0188221960F5F1F4F42
:102E8000EDCFCDB7DEB7E6E00C941923EF92FF92B9
:102E90000F931F93CF93DF93EA017A01E60EF71E9B
:102EA0008C01C801875B9F4FCE15DF0559F0073BAA
:102EB00023E0120718F468810E94702321960F5FA7
:102EC0001F4FEFCFCDB7DEB7E6E00C941923CF93B9
:102ED000DF93C9E4D0E060E0CE010E947023219628
:102EE000C11584E0D807B9F7DF91CF910895A8E024
:102EF000B0E0EDE7F7E10C94F722F82E8FE08F15A4
:102F000008F474C08FEF93E00E94522381116EC0C9
:102F100009E410E0FF2071F0011594E0190709F4AD
:102F200065C0C8010E945223811101C0FA940F5F4D
:102F30001F4FF0CFFE0131966F0188E011928A9504
:102F4000E9F77801FFEFEF1AFF0AC8010E94522348
:102F500089831A82882309F449C0813009F040C06E
:102F6000580182E0A80EB11CC7010E9452238A8337
:102F70008823E1F19FEF980F933060F4780193E09C
:102F8000E90EF11CC5010E9452238B83882371F145
:102F90001C8226C0843019F54E01E3E08E0E911C90
:102FA00002E010E07501FFEFEF1AFF0AC5010E9471
:102FB0005223F40181934F018823C1F08C3741F4EF
:102FC000E2E0F0E0EC0FFD1FE00FF11F108208C0FF
:102FD0000F5F1F4F57010730110521F707C075011B
:102FE00060E0C6010E9404168701ABCF2896ECE092
:102FF0000C941323CF93DF9386319C4741F5EB016B
:103000000E941E0B982F8D812091000130910101AB
:10301000882379F09A7A81E009F480E080934B026A
:10302000911102C069E201C065E3C9010E943C1A26
:103030000AC080914B02811102C069E201C065E3C0
:10304000C9010E944A1A0E946A0B80E001C081E017
:10305000DF91CF9108950F931F93CF93DF93C42FE8
:10306000D22FFC0185818823B1F040934E020E944B
:10307000401B90934D0280934C0280E28C0F88306D
:1030800008F04DC0C77081E001C0880FCA95EAF70B
:103090000E94490444C080914E02481330C0809180
:1030A0004C0290914D020E94581B883C910538F5C6
:1030B00010E21D0FCD17B9F080E28C0F883040F47C
:1030C000C77081E001C0880FCA95EAF70E945004DA
:1030D000183010F581E09D2F977001C0880F9A95E8
:1030E000EAF70E944904802F0E943F041830B8F488
:1030F000D77081E001C0880FDA95EAF70AC080E254
:103100008C0F883060F4C77081E001C0880FCA95C9
:10311000EAF70E94500403C0802F0E943F04DF9111
:10312000CF911F910F9108950F93FC01E851FC4737
:10313000E730F10590F5CB01E956FF4F0C94E422FE
:1031400006E221EE41EE6AE17CE723C007E225EECC
:1031500045EE6BE17CE71DC006E221EE40EE68E142
:103160007CE717C007E225EE44EE69E17CE711C079
:1031700006E221EE42EE6CE17CE70BC007E225EEB1
:1031800046EE6DE17CE705C008E221E045EE6EE128
:103190007CE70E942B1880E008C0FB018581882312
:1031A00019F010924E0201C081E00F9108951F9313
:1031B000CF93DF9387372CE7920721F088379C471E
:1031C00059F031C0FB01C581CC2319F00E941919B7
:1031D00009C00E94191918C0FB01C581CC2391F0C8
:1031E0000E941C190E940F070E941F19D82F0E94CD
:1031F0001C19C82F0E9419194D2F6C2F0E942E08E0
:10320000C0E012C00E941C190E941B070E941F19D7
:10321000182F0E941C19D82F0E941919412F6D2FA9
:103220000E942E0801C0C1E08C2FDF91CF911F9129
:10323000089580910C01089580910B01089580916B
:103240000A01089590935402809353020895E091E7
:103250005302F0915402309729F00190F081E02D53
:103260000995089580E00895FC01A0915302B09162
:103270005402109791F080911501882341F08091BC
:10328000790287FF04C08081818386E08083CF013B
:103290001296ED91FC91139709950895E0915302D0
:1032A000F0915402309739F022E0DC012C93048035
:1032B000F581E02D09950895A3E0B0E0E2E6F9E19B
:1032C0000C940123209151023091520228173907A2
:1032D000A1F09093520280935102E0915302F09139
:1032E0005402309751F023E029839B838A83068020
:1032F000F781E02DCE01019609952396E2E00C942A
:103300001D23A3E0B0E0E7E8F9E10C94012320914C
:103310004F023091500228173907A1F090935002C4
:1033200080934F02E0915302F0915402309751F094
:1033300024E029839B838A830680F781E02DCE01D8
:10334000019609952396E2E00C941D23FC01329628
:1033500080911501882331F08091790287FF02C0A6
:103360009EE101C096E080E0915028F02191222357
:10337000D9F38F5FF9CF0895662351F1209115019C
:103380002223E9F02091790227FF19C0462F4695A4
:10339000469546954E31E0F4677021E030E002C07A
:1033A000220F331F6A95E2F7FC01E40FF11D8281C1
:1033B00090E02823392381E0232B69F409C0FC0124
:1033C000329608962191621729F0E817F907D1F78C
:1033D00080E0089581E008959C01FC0132969FEF02
:1033E00080E04191461789F09F3F19F4411101C0D7
:1033F000982F8F5F8630A9F79F3F39F0F901E90FC9
:10340000F11D97FDFA956283089508959C012A5F46
:103410003F4FFC014281461301C012820196821780
:103420009307B9F70895262F2695269526952E31D0
:1034300068F4FC01E20FF11D677021E030E001C08B
:10344000220F6A95EAF78281282B22830895262F7E
:103450002695269526952E3170F4FC01E20FF11D7C
:10346000677021E030E001C0220F6A95EAF72095ED
:10347000828128232283089520911501222339F087
:103480002091790227FF03C00E94131A08950E9419
:10349000EC19089520911501222339F02091790229
:1034A00027FF03C00E94271A08950E94061A089554
:1034B00020911501FC013296222331F0809179028E
:1034C00087FF02C08EE101C086E0DF011D928A9570
:1034D000E9F70895DC01FB0111969C911197818118
:1034E000981321C012968C911297882319F092811B
:1034F000891319C013968C911397882319F093811F
:10350000891311C015968C911597882319F0958110
:10351000891309C014969C91992339F081E0248184
:10352000291304C002C081E001C080E081700895C9
:1035300008950E94981A089583E0809355020E948E
:10354000991A0895811102C081E001C082E0809340
:1035500055020E94991A08950E94A21A089581E0C6
:10356000809355020E94991A08950E94AF1A0895F7
:1035700008950E94B81A08950E94B91A08950E94E9
:10358000B81A08950E94B81A08950E94B81A0895AA
:103590000E94C21A0E9462100E94BF1A80E00E941C
:1035A000E20F91E0811101C090E0892F089585B765
:1035B000806885BF85B7806885BF08951F920F9288
:1035C0000FB60F9211248F939F93AF93BF93809167
:1035D0005602811113C080917D0290917E02A091CC
:1035E0007F02B09180024196A11DB11D80937D02A2
:1035F00090937E02A0937F02B0938002BF91AF911F
:103600009F918F910F900FBE0F901F9018958091F2
:103610008502843031F10E940A031092560220E4A0
:1036200088E190E00FB6F894A895809360000FBEF3
:103630002093600083B7817F846083BF83B78160FC
:1036400083BF7894889583B78E7F83BF0FB6F89435
:10365000A89580916000886180936000109260005E
:103660000FBE08950E9497060E940F03089582E0FE
:1036700084BD93E095BD9AEF97BD80936E00089549
:103680002FB7F89480917D0290917E02A0917F02E5
:10369000B09180022FBF08952FB7F89460917D02FA
:1036A00070917E0280917F02909180022FBF0895D9
:1036B0009C014FB7F89480917D0290917E02A09179
:1036C0007F02B09180024FBF821B930B08957894C4
:1036D0001F920F920FB60F9211248F939F93AF9367
:1036E000BF9380917D0290917E02A0917F02B09164
:1036F00080020196A11DB11D80937D0290937E02F0
:10370000A0937F02B0938002BF91AF919F918F9160
:103710000F900FBE0F901F90189587E797E7909333
:103720000108809300089AE088E10FB6F894A89504
:10373000809360000FBE90936000FFCF9AE088E115
:103740000FB6F894A895809360000FBE9093600028
:10375000FFCF8091770208959B019091850294306C
:10376000F1F48F708093E9008FEF9091E800815021
:1037700095FD06C095ED9A95F1F700008111F5CF02
:103780008091E80085FF0BC0BA01C90140E050E01C
:103790000E94FD1D8091E8008E778093E8000895D7
:1037A00043E050E0BC0184E00E94AC1B089546E079
:1037B00050E0BC0184E00E94AC1B0895CF93DF93DE
:1037C000EC0180911501811105C048E050E0BE0177
:1037D00081E00BC08091790287FF03C040E284E062
:1037E00002C048E081E050E0BE010E94AC1B80E2D4
:1037F000FE01A7E5B2E001900D928A95E1F7DF9115
:10380000CF910895603231F4BC0140E250E082E093
:103810000E94AC1B089580918402811109C00E940E
:10382000CD1F0E942A208091E20084608093E200F4
:1038300008951092840208950E94B51A0895609127
:10384000810281E0611101C080E00E949C1A08950C
:103850009091850281E0943009F080E060918102CE
:103860000E94A21A089542E061EC81E00E94461F86
:1038700042E261EC84E00E94461F42E261EC82E099
:103880000E94461F42E260EC83E00E94461F909136
:10389000850281E0943009F080E0609181020E940D
:1038A000AC1A089580918702833009F463C030F424
:1038B000813071F0823009F49DC008958A3009F496
:1038C00089C08B3009F46EC0893009F0ABC020C0CC
:1038D00080918602813A09F0A5C08091E800877F37
:1038E0008093E80080918A0290918B02892B21F4C9
:1038F00060E287E592E003C060E080E090E070E085
:103900000E94871E8091E8008B778093E8000895DD
:1039100080918602813209F085C080918A0290915F
:103920008B02009719F0029709F07CC08091E800A3
:10393000877F8093E8008091E80082FD05C0809138
:1039400085028111F8CF6EC02091F3008091F200C2
:1039500090E0922B029731F48091F100813011F0C8
:10396000863021F48091F100809377028091E80005
:103970008B7754C080918602813A09F053C08091C0
:103980008A0290918B02892B09F04CC08091E8004B
:10399000877F8093E8008091E80080FFFCCF8091D2
:1039A000150137C0809186028132E1F580918A024B
:1039B00090918B02892BB1F58091E800877F8093ED
:1039C000E8000E947B1F80918802809315010E946D
:1039D0009706089580918602813221F58091E80052
:1039E000877F8093E8000E947B1F809189028093EB
:1039F0007802089580918602813AA1F48091E800CE
:103A0000877F8093E8008091E80080FFFCCF809161
:103A100078028093F1008091E8008E778093E8002F
:103A20000E947B1F089584B7877F84BF0FB6F894E8
:103A3000A89580916000886180936000109260007A
:103A40000FBE90E080E80FB6F894809361009093E9
:103A500061000FBE0E94AF1A08950E94CD1F0E9400
:103A60002A20E2EEF0E080818460808378940E94D6
:103A7000B52208958DE091E00E9422190895809169
:103A800085028530A9F480918502853079F40E9401
:103A9000071B809183028823B1F30E94C81A8823F0
:103AA00091F30E94E71D0E949706EDCF0E94321B02
:103AB0000895A0E2B0E0EFE5FDE10C9401238091D0
:103AC0008502843011F583E08093E9008091E8005D
:103AD00082FF1BC08091E80085FF0AC040E050E0F3
:103AE00060E270E0CE0101960E94421E91E001C0AA
:103AF00090E08091E8008B778093E800992329F08B
:103B000060E2CE0101960E94EE13A096E2E00C94D2
:103B10001D239A0140918C0250918D020E94911DAB
:103B20000895492F552743305105C9F060F44130BD
:103B3000510581F04230510509F041C08BE590E01C
:103B40004EE552E040C041325105E1F042325105AC
:103B500031F135C082E190E049EB52E034C0992761
:103B60008130910549F028F0029749F5E0E2F2E052
:103B700005C0EAE5F2E002C0E4E4F2E0849190E0FE
:103B8000AF0121C063307105D0F4660F771FFB01D0
:103B9000EB56FE4F4081518189E090E014C06330C4
:103BA000710568F4FB01EE0FFF1FE157FE4F4081E6
:103BB0005181FB01E457FE4F808190E004C080E01A
:103BC00090E040E050E0F90151834083089580E1A6
:103BD00089BD82E189BD09B400FEFDCF8091D80086
:103BE0008F7D8093D8008091E00082608093E00018
:103BF0008091E00081FDFCCF0895A0E0B0E0E3E01B
:103C0000FEE10C94FB22EC018B017A010E949A1FC9
:103C1000811133C0E114F10439F0F7018081918101
:103C2000081B190BC80FD91FC12CD12C0115110568
:103C300019F18091E80085FD16C08091E8008E772B
:103C40008093E800E114F10449F0F701808191814B
:103C5000C80ED91ED182C08285E00FC00E949A1F73
:103C6000882321F30AC089918093F1000150110942
:103C7000FFEFCF1ADF0ADACF80E0CDB7DEB7E8E09A
:103C80000C941723A0E0B0E0E8E4FEE10C94FB22E2
:103C9000EC018B017A010E949A1F811133C0E1145B
:103CA000F10439F0F70180819181081B190BC80FCD
:103CB000D91FC12CD12C0115110519F18091E800F3
:103CC00085FD16C08091E8008B778093E800E114B1
:103CD000F10449F0F70180819181C80ED91ED1828B
:103CE000C08285E00FC00E949A1F882321F30AC07A
:103CF0008091F100899301501109FFEFCF1ADF0A7B
:103D0000DACF80E0CDB7DEB7E8E00C94172320913E
:103D10008C0230918D022617370748F06115710526
:103D200039F42091E8002E772093E80001C0B90112
:103D3000FC0120E06115710579F1809185028823ED
:103D4000F1F18530F1F18091E80083FD3CC0809174
:103D5000E80082FD2EC08091E80080FFEBCF20912B
:103D6000F3008091F20090E0922B6115710551F003
:103D70008830910538F421912093F1006150710948
:103D80000196F3CF21E0089709F020E08091E80048
:103D90008E778093E800CECF2111CFCF0AC08091DB
:103DA0008502882361F0853061F08091E80083FD11
:103DB0000AC08091E80082FFF2CF80E0089582E09F
:103DC000089583E0089581E0089520918C02309158
:103DD0008D022617370748F06115710539F42091D7
:103DE000E8002E772093E80001C0B901FC0120E033
:103DF0006115710591F180918502882309F440C015
:103E0000853009F43FC08091E80083FD3DC080917A
:103E1000E80082FD2FC08091E80080FFE9CF20916B
:103E2000F3008091F20090E0922B6115710559F03A
:103E30008830910540F424912093F100319661502F
:103E400071090196F2CF21E0089709F020E08091F6
:103E5000E8008E778093E800CBCF2111CCCF0AC049
:103E600080918502882361F0853061F08091E800BF
:103E700083FD0AC08091E80082FFF2CF80E00895C0
:103E800082E0089583E0089581E00895982F9730A7
:103E900068F59093E900981739F07091EC00209143
:103EA000ED005091F00003C0242F762F50E021FD4B
:103EB00002C09F5FECCF3091EB003E7F3093EB0070
:103EC0003091ED003D7F3093ED003091EB0031609B
:103ED0003093EB007093EC002093ED005093F000D2
:103EE0002091EE0027FDE5CF80E008958F7080934C
:103EF000E90081E008958091860287FF11C08091DA
:103F0000E80082FD05C0809185028111F8CF11C0C3
:103F10008091E8008B770BC080918502882349F05F
:103F20008091E80080FFF8CF8091E8008E77809341
:103F3000E80008952091E4003091E50095E6409175
:103F4000EC00842F817040FF23C08091E80080FD49
:103F50001DC080918502882399F0853099F0809169
:103F6000EB0085FD11C04091E4005091E50024175D
:103F7000350729F3915011F09A01E1CF84E00895BB
:103F800082E0089583E0089581E0089580E0089537
:103F90004091E80042FFDDCF08950E943C200E943E
:103FA0004420E0EEF0E0808181608083E8EDF0E085
:103FB00080818F77808319BCA7EDB0E08C918E7FD4
:103FC0008C9380818F7E80831092840208950F935A
:103FD0001F93CF93DF930E943C200E944420C8EDA2
:103FE000D0E088818F778883888180688883888102
:103FF0008F7D888319BC10928502109281021092E5
:1040000083021092820200EE10E0F80180818B7F23
:10401000808388818160888342E060E080E00E9444
:10402000461FE1EEF0E080818E7F8083E2EEF0E0DB
:10403000808181608083808188608083F8018081B5
:104040008E7F8083888180618883DF91CF911F91EB
:104050000F910895E8EDF0E080818F7E8083E7ED99
:10406000F0E080818160808384E082BF81E0809382
:1040700084020E94E71F0895E8EDF0E080818E7FC2
:1040800080831092E20008951092DA001092E1000D
:1040900008951F920F920FB60F9211242F933F9302
:1040A0004F935F936F937F938F939F93AF93BF9340
:1040B000EF93FF938091E10082FF0BC08091E200BB
:1040C00082FF07C08091E1008B7F8093E1000E9416
:1040D000B4228091DA0080FF1FC08091D80080FF59
:1040E0001BC08091DA008E7F8093DA008091D90026
:1040F00080FF0DC080E189BD82E189BD09B400FE69
:10410000FDCF81E0809385020E940B1C05C019BC85
:10411000109285020E94191C8091E10080FF19C055
:104120008091E20080FF15C08091E2008E7F809335
:10413000E2008091E20080618093E2008091D800EB
:1041400080628093D80019BC85E0809385020E942C
:104150001F1C8091E10084FF30C08091E20084FF49
:104160002CC080E189BD82E189BD09B400FEFDCF8C
:104170008091D8008F7D8093D8008091E1008F7E60
:104180008093E1008091E2008F7E8093E200809135
:10419000E20081608093E20080918102882311F027
:1041A00084E007C08091E30087FD02C081E001C088
:1041B00083E0809385020E94281C8091E10083FFA8
:1041C00029C08091E20083FF25C08091E100877FB4
:1041D0008093E10082E080938502109281028091B9
:1041E000E1008E7F8093E1008091E2008E7F8093DA
:1041F000E2008091E20080618093E20042E060E0B2
:1042000080E00E94461F8091F00088608093F0005B
:104210000E941C1CFF91EF91BF91AF919F918F91D4
:104220007F916F915F914F913F912F910F900FBEB2
:104230000F901F9018951F920F920FB60F92112496
:104240002F933F934F935F936F937F938F939F939E
:10425000AF93BF93CF93DF93EF93FF93C091E900A8
:10426000CF708091EC00D82FD17080FDD0E81092F3
:10427000E9008091F000877F8093F00078940E949D
:104280005F211092E9008091F00088608093F00037
:10429000CD2BCF70C093E900FF91EF91DF91CF91CB
:1042A000BF91AF919F918F917F916F915F914F914E
:1042B0003F912F910F900FBE0F901F901895AAE27B
:1042C000B0E0E5E6F1E20C940023E6E8F2E080914C
:1042D000F100819322E0EE38F207C9F70E94521CE8
:1042E0008091E80083FF2EC1809186029091870221
:1042F000492F50E04A30510508F024C1FA01E25636
:10430000FF4F0C94E422803821F0823809F01AC162
:1043100008C08091820290918302992389F0826083
:104320000FC080918A028F70873008F00BC1809394
:10433000E9008091EB0085FB882780F91092E90065
:104340009091E800977F9093E8008093F10010929D
:10435000F100D1C0282F2D7F09F0F4C0882319F077
:10436000823061F0EFC080918802813009F0EAC0AC
:10437000933009F080E0809383022EC08091880200
:1043800081112AC080918A028F702FEF280F26306A
:1043900008F0D8C08093E9002091EB0020FF1CC0FA
:1043A000933021F48091EB00806214C09091EB0077
:1043B00090619093EB0021E030E0A90102C0440F2E
:1043C000551F8A95E2F74093EA001092EA00809127
:1043D000EB0088608093EB001092E9008091E80088
:1043E000877F8093E8000E947B1FACC08111AAC028
:1043F000109188021F778091E3008078812B809351
:10440000E3008091E800877F8093E8000E947B1F93
:104410008091E80080FFFCCF8091E300806880936A
:10442000E300111102C082E001C083E080938502A5
:1044300089C08058823008F085C0809188029091B0
:1044400089028C3D53E0950779F583E08A838AE2FF
:1044500089834FB7F894DE01139620E03EE051E2E5
:10446000E32FF0E050935700E49120FF03C0E29562
:10447000EF703F5FEF708E2F90E0EA3010F0C7963C
:1044800001C0C0968D939D932F5F243149F74FBF94
:104490008091E800877F8093E8006AE270E0CE01B7
:1044A00001960E94871E16C060918A0270918B024D
:1044B000AE014F5F5F4F0E94891DBC01892B09F43B
:1044C00041C09091E800977F9093E80089819A819C
:1044D0000E94E51E8091E8008B778093E80032C04F
:1044E000803881F58091E800877F8093E800809193
:1044F00081028093F1008091E8008E7772CF811164
:1045000021C0809188029091890299270297D4F462
:104510008091E800877F8093E800809188028093F3
:1045200081020E947B1F80918102811106C08091CF
:10453000E30087FD02C081E001C084E08093850232
:104540000E94331C8091E80083FF0AC08091E8003C
:10455000877F8093E8008091EB0080628093EB007E
:10456000AA96E3E00C941C230895CF9380918502D2
:104570008823A1F0C091E900CF709091EC00892FC1
:10458000817090FD80E8C82B1092E9008091E800CE
:1045900083FD0E945F21CF70C093E900CF91089501
:1045A00097FB072E16F4009407D077FD09D00E94E0
:1045B000282307FC05D03EF4909581959F4F0895E0
:1045C000709561957F4F0895EE0FFF1F0590F49150
:1045D000E02D099469279627692778278727782768
:1045E00008952F923F924F925F926F927F928F9297
:1045F0009F92AF92BF92CF92DF92EF92FF920F9372
:104600001F93CF93DF93CDB7DEB7CA1BDB0B0FB67B
:10461000F894DEBF0FBECDBF09942A883988488838
:104620005F846E847D848C849B84AA84B984C884CE
:10463000DF80EE80FD800C811B81AA81B981CE0FC5
:10464000D11D0FB6F894DEBF0FBECDBFED010895AA
:10465000AA1BBB1B51E107C0AA1FBB1FA617B707A8
:1046600010F0A61BB70B881F991F5A95A9F78095C4
:104670009095BC01CD010895FB01DC0104C08D9132
:104680000190801921F441505040C8F7881B990BC4
:104690000895FB01DC0102C001900D924150504091
:1046A000D8F70895F999FECF92BD81BDF89A992760
:1046B00080B50895A8E1B0E042E050E00C94962364
:1046C000DC01A40FB51F4150504048F0CB01840FCE
:1046D000951F2E910E94712341505040D0F70895AC
:1046E000262FF999FECF92BD81BDF89A019700B4AB
:1046F000021639F01FBA20BD0FB6F894FA9AF99A4B
:104700000FBE08950396272F0E9471230E947023E5
:10471000252F0E947123242F0C9471230196272F9B
:104720000E9471230C947023DC01CB01FC01F999E8
:10473000FECF06C0F2BDE1BDF89A319600B40D92ED
:0C47400041505040B8F70895F894FFCFA6
:10474C000D02280850011E0A1401030201A91BDEE8
:10475C001BD71BD01B01E200E900EA00B500B60034
:10476C00B700CD008301CC008A0192019401210293
:10477C00230224022502260227022A02B300B400D7
:10478C006F0070009F01CB019F02A002818283E227
:10479C0000E900EA00B500B600B700CD008301CCFB
:1047AC00008A01920194012102230224022502268F
:1047BC000227022A02B300B4006F0070009F01CBE5
:1047CC00019F02A002818283669490914422B6A339
:0C47DC0003CB02ED0270028902A902006A
:00000001FF
